:020000040800F2
:1000000000000824511B00083D1A00083F1A000890
:10001000411A0008431A0008451A000800000000B1
:10002000000000000000000000000000F1000108D6
:10003000471A0008000000008101010835F9000896
:10004000A11B0008A11B0008A11B0008A11B0008A0
:10005000A11B0008A11B0008A11B0008A11B000890
:10006000A11B0008A11B0008A11B0008A11B000880
:10007000A11B0008A11B0008A11B0008A11B000870
:10008000A11B0008A11B0008A11B0008A11B000860
:10009000A11B0008A11B0008A11B0008A11B000850
:1000A000A11B0008A11B0008A11B0008A11B000840
:1000B000A11B0008A11B0008A11B0008A11B000830
:1000C000A11B0008A11B0008A11B0008A11B000820
:1000D000A11B0008A11B0008A11B0008A11B000810
:1000E000A11B0008A11B000800000000A11B0008C4
:1000F000A11B0008A11B0008A11B0008A11B0008F0
:10010000A11B0008A11B0008A11B0008A11B0008DF
:10011000A11B0008A11B0008491A0008A11B000828
:10012000A11B0008A11B0008A11B0008A11B0008BF
:10013000A11B0008A11B0008A11B0008A11B0008AF
:10014000A11B0008A11B0008000000000000000027
:10015000A11B0008A11B0008A11B0008A11B00088F
:10016000A11B0008A11B0008A11B0008A11B00087F
:10017000A11B0008A11B0008A11B00080000000033
:10018000A11B0008A11B0008A11B0008A11B00085F
:10019000A11B0008A11B0008A11B0008A11B00084F
:1001A000551A0008A11B0008611A0008A11B0008CD
:1001B000A11B0008A11B0008A11B0008A11B00082F
:1001C000A11B0008A11B0008A11B0008A11B00081F
:1001D000A11B0008A11B0008A11B0008A11B00080F
:1001E000A11B0008A11B0008A11B0008A11B0008FF
:1001F000A11B0008A11B0008A11B0008A11B0008EF
:10020000A11B0008A11B0008A11B0008A11B0008DE
:10021000A11B0008A11B0008A11B0008A11B0008CE
:10022000A11B00086D1A0008791A0008951A000829
:10023000A11B0008A11B0008A11B0008A11B0008AE
:10024000A11B0008A11B0008A11B0008A11B00089E
:10025000A11B0008A11B0008A11B0008A11B00088E
:10026000A11B0008A11B0008A11B0008A11B00087E
:10027000A11B0008A11B0008A11B0008A11B00086E
:10028000A11B0008A11B0008A11B00080000000022
:08029000A11B0008A11B0008DE
:1002A00010B5054C237833B9044B13B10448AFF3B0
:1002B00000800123237010BD4003002400000000D3
:1002C0004C91020808B5034B1BB103490348AFF337
:1002D000008008BD00000000440300244C91020887
:1002E00001F0FF01102A2BDB10F0070F08D010F8E7
:1002F000013B013A8B422DD010F0070F42B3F6D1EB
:10030000F0B441EA012141EA014122F007047FF003
:1003100000070023F0E80256083C85EA010586EA5A
:10032000010685FA47F5A3FA87F586FA47F6A5FA96
:1003300087F68EB9EED1F0BC01F0FF0102F00702A2
:1003400032B110F8013B013A83EA010313B1F8D14D
:100350000020704701387047002D06BF354603382E
:10036000073815F0010F07D1013015F4807F02BF67
:10037000013015F4C03F0130F0BC0138704700BFB8
:1003800081F0004102E000BF83F0004330B54FEA46
:1003900041044FEA430594EA050F08BF90EA020FB3
:1003A0001FBF54EA000C55EA020C7FEA645C7FEA46
:1003B000655C00F0E2804FEA5454D4EB5555B8BF69
:1003C0006D420CDD2C4480EA020281EA030382EADA
:1003D000000083EA010180EA020281EA0303362D6C
:1003E00088BF30BD11F0004F4FEA01314FF4801C3F
:1003F0004CEA113102D0404261EB410113F0004F51
:100400004FEA03334CEA133302D0524263EB430307
:1004100094EA050F00F0A780A4F10104D5F1200EA5
:100420000DDB02FA0EFC22FA05F2801841F1000100
:1004300003FA0EF2801843FA05F359410EE0A5F1D4
:1004400020050EF1200E012A03FA0EFC28BF4CF005
:10045000020C43FA05F3C01851EBE37101F00045BB
:1004600007D54FF0000EDCF1000C7EEB00006EEBC8
:100470000101B1F5801F1BD3B1F5001F0CD3490852
:100480005FEA30004FEA3C0C04F101044FEA4452A9
:1004900012F5800F80F09A80BCF1004F08BF5FEA30
:1004A000500C50F1000041EB045141EA050130BD10
:1004B0005FEA4C0C404141EB0101013C28BFB1F522
:1004C000801FE9D291F0000F04BF01460020B1FA6D
:1004D00081F308BF2033A3F10B03B3F120020CDA40
:1004E0000C3208DD02F1140CC2F10C0201FA0CF01E
:1004F00021FA02F10CE002F11402D8BFC2F1200C83
:1005000001FA02F120FA0CFCDCBF41EA0C01904038
:10051000E41AA2BF01EB0451294330BD6FEA040481
:100520001F3C1CDA0C340EDC04F11404C4F120026C
:1005300020FA04F001FA02F340EA030021FA04F37E
:1005400045EA030130BDC4F10C04C4F1200220FAD5
:1005500002F001FA04F340EA0300294630BD21FA13
:1005600004F0294630BD94F0000F83F4801306BFD9
:1005700081F480110134013D4EE77FEA645C18BFCD
:100580007FEA655C29D094EA050F08BF90EA020F64
:1005900005D054EA000C04BF1946104630BD91EA5C
:1005A000030F1EBF0021002030BD5FEA545C05D15F
:1005B0004000494128BF41F0004130BD14F580049E
:1005C0003CBF01F5801130BD01F0004545F0FE4112
:1005D00041F470014FF0000030BD7FEA645C1ABF47
:1005E000194610467FEA655C1CBF0B46024650EA7E
:1005F000013406BF52EA033591EA030F41F40021AA
:1006000030BD00BF90F0000F04BF0021704730B52F
:100610004FF4806404F132044FF000054FF0000104
:1006200050E700BF90F0000F04BF0021704730B5C5
:100630004FF4806404F1320410F0004548BF40429A
:100640004FF000013EE700BF42004FEAE2014FEAEF
:1006500031014FEA02701FBF12F07F4393F07F4FCA
:1006600081F06051704732F07F4208BF704793F0CD
:100670007F4F04BF41F40021704730B54FF46074E0
:1006800001F0004521F000411CE700BF50EA0102E3
:1006900008BF704730B54FF000050AE050EA01028C
:1006A00008BF704730B511F0004502D5404261EBFC
:1006B00041014FF4806404F132045FEA915C3FF43D
:1006C000D8AE4FF003025FEADC0C18BF03325FEADA
:1006D000DC0C18BF033202EBDC02C2F1200300FA8B
:1006E00003FC20FA02F001FA03FE40EA0E0021FAB0
:1006F00002F11444BDE600BF0149002010F004BF20
:100700004D24000800224FF4006101480AF088BF20
:100710000024025801224FF4006101480AF080BF12
:1007200000240258F0B5074C2378632B08D803EB5C
:100730004306054F0133BD19B85523706970AA707F
:10074000F0BD00BF5C0300245D0300246FF0FB13C9
:1007500007B5CDE90033FFF7D5FF642308226946CA
:1007600003480EF079FDFFF7D5FF03B05DF804FBF9
:100770001805002407B50A23C0B28DF800308DF8A3
:1007800001008DF802308DF803008DF804308DF8EB
:1007900005008DF806308DF80700FFF7B3FF6423DE
:1007A0000822694604480EF057FDFFF7B3FFFFF734
:1007B000CDFF03B05DF804FB1805002473B5144C9D
:1007C0000125144E14F8012BEBB201358DF80720EA
:1007D000E2798DF806308DF804308DF805208DF81B
:1007E0000230E27B8DF80030E37D8DF803208DF838
:1007F0000130FFF787FF64230822694630460EF078
:100800002BFDFFF787FF092DDCD102B070BD00BFC3
:1008100089040024180500240328F0B532D841EAE1
:100820000203072B2ED84900174E00250139C9B203
:1008300001F1FF3E374600245FFA85FC60451DD17B
:10084000E3B2994201D0A64518D1032A16D8DFE8B1
:1008500002F0170211130C23013407F8013B082C96
:10086000ECD101350836042DE4D10748BDE8F0404D
:10087000FFF7A4BF3023EFE7C023EDE70023EBE74A
:100880000323E9E7F0BD00BF89040024044B00EB1B
:1008900040001918185C8A784978FFF7BDBF00BF7F
:1008A0005D03002473B501240025114E8DF800402E
:1008B0008DF802408DF804408DF8064001348DF823
:1008C0000150E4B28DF803508DF805508DF80750B3
:1008D000FFF718FF4FF4FA730822694630460EF00E
:1008E000BBFCFFF717FF092CE0D102B070BD00BFC1
:1008F0001805002413B5002A37D000231C46012A0E
:100900008DF800308DF8014013BF002303460C46DC
:100910001C46022A8DF8023014BF002303468DF8CE
:1009200003400CBF0C461C46032A8DF8043018BF48
:1009300000208DF8054018BF01468DF806008DF89F
:100940000710FFF7DFFE642009F060FE6423082231
:10095000694607480EF080FC0446642009F056FE04
:10096000FFF7D8FE204602B010BD03460C46C6E78E
:100970001805002438B50025ECB200210F20013500
:100980002246FFF7B7FF224600210920FFF7B2FFFA
:10099000224607210B20FFF7ADFF224601210C2044
:1009A000FFF7A8FF224608210A20FFF7A3FF042D26
:1009B000E2D138BDF0B59DB04C22002109A827F046
:1009C0002FFE2022002101A827F02AFE04200CF08F
:1009D000ABFC00230093264BDA6A22F00102DA62B4
:1009E000DB6A03F001030093224B9A6942F4404210
:1009F0009A619A6902F440420092009A9A699104BD
:100A0000FCD54FF480330327402505220224082615
:100A100009A81894CDE909730123CDE90C35A02369
:100A2000CDE914230023CDE91244CDE91644CDE9E4
:100A300019631B930CF078FF08B172B6FEE73F23F1
:100A40002146CDE901374FF48063CDE9030601A8C3
:100A5000CDE90555CDE907350DF002FB014608B19A
:100A600072B6FEE74FF480220DF00AFA1DB0F0BD19
:100A700000040058004802582DE9F04FBDB0102284
:100A8000002101242FA8042527F0CAFD09F03AFE11
:100A90004FF01041BE4B2FA8ADF8BC403294CDE9C9
:100AA000301309F04DFE1A232FA88DF8BD408DF8A4
:100AB000C43009F045FE02232FA88DF8CA408DF8F6
:100AC000BD304FF05043309318238DF8C43009F0F7
:100AD00037FE03232FA88DF8BD304FF0105330930D
:100AE00012238DF8C43000238DF8C83009F028FE99
:100AF0004FF080532FA88DF8BD50309311238DF8FF
:100B0000C43009F01DFE05232FA88DF8C8408DF8CC
:100B1000BD30A04B30930E238DF8C43009F010FE89
:100B2000284609F0FDFD9C4B5A6912F4003211D1A0
:100B3000BFF34F8FBFF36F8FC3F85022BFF34F8FB8
:100B4000BFF36F8F5A6942F400325A61BFF34F8F7F
:100B5000BFF36F8F904A536913F4803323D1C2F8E7
:100B60008430BFF34F8FD2F8803043F6E074C3F384
:100B7000C900C3F34E335B0103EA0406014646EAAB
:100B800081750139C2F86052F9D2203B13F1200F70
:100B9000F2D1BFF34F8F536943F480335361BFF3F6
:100BA0004F8FBFF36F8F4FF6FF737C4D2C6814F49B
:100BB000004400F04483013BF8D272B6FEE772B6FF
:100BC000FEE77748774A8361C0F82090C0E90026A5
:100BD000C0E90253C0E904530CF0C6FC08B172B678
:100BE000FEE740F203132FA98DF8BE90ADF8BC309C
:100BF00009F068F808B172B6FEE709F00FF803468D
:100C000008B172B6FEE768484FF44032674FC0E95A
:100C10000253C0E9007209F020FE074608B172B61F
:100C2000FEE70246414662480AF0FAFC142009F049
:100C3000EDFC41462A465E480AF0F2FC0A2009F023
:100C4000E5FC2422394619A827F0EAFC1822394687
:100C500013A827F0E5FC342239462FA827F0E0FC42
:100C600039462C2222A827F0DBFCDFF848814FF020
:100C7000A04310A940461295C8E900377723C8E978
:100C80000245CDE9103609F035FF08B172B6FEE72E
:100C9000CDE91950CDE91B00CDE91D00CDE91F00BC
:100CA000219019A940460AF091F908B172B6FEE701
:100CB00021231C250F2613A9CDE913531923CDE9B0
:100CC00017004046CDE915630AF043F908B172B642
:100CD000FEE7042137480AF02BF908B172B6FEE7A7
:100CE00042F2107133480AF0FAFA014608B172B6BE
:100CF000FEE7304809F09BFE08B172B6FEE74FF4FC
:100D000000734FF4807A4FF4806B4FF480524FF4AD
:100D100080414FF400304FF400244FF00208CDE939
:100D20002FA34FF40063CDF8EC80CDE931B34FF43D
:100D30000053CDE933234FF48033CDE935134FF41D
:100D400080232FA9CDE937034FF080731948CDE9EF
:100D500039430AF0B9F808B172B6FEE705234FF43B
:100D6000C877012622A9229029902C96CDE9233715
:100D70001023CDE925308023CDE92700CDE92A30A5
:100D80000C480AF02FF80146B0B172B6FEE700BF7A
:100D90001B0000030000041000ED00E000440258B6
:100DA000A005002400500052E0070024001000526B
:100DB00000180258C407002480480AF002F80446CC
:100DC00008B172B6FEE73422014622A87C4D27F016
:100DD00027FCDFF838E24FF00043C5F8208040F2EE
:100DE00093192846AC8685F83640C5E900E34FF0F4
:100DF0008043C5E90648C5E902344FF4C9784FF489
:100E0000F173C5E9098340F2E313C5E90444C5E978
:100E10000B930BF071FF024608B172B6FEE7FF219B
:100E20004FF4C06C4FF4F0732490ADF8B8008DF817
:100E3000BA002D93CDE927100721CDE929C14FF044
:100E40005041CDE92207CDE92B17284622A9CDE94B
:100E500025360CF006F8044608B172B6FEE72A689B
:100E60005648936923F0010393610AF015F9554937
:100E7000554B5648CB60564B0C804B60554B8B60A6
:100E800008F0C4FC32462146504808F02FF92823C8
:100E900015222146494800940AF031F92FA9474804
:100EA0003994CDE92F44CDE93144CDE93344CDE93E
:100EB0003544CDE937440AF007F822464FF448712B
:100EC00028460BF0FBFF2A6843489369848043F06F
:100ED00001039361414B06620360C0E9054409F0D8
:100EE0005BFC08B172B6FEE73D483E4B03600BF079
:100EF000F1F808B172B6FEE73B484FF480033B4A75
:100F00004FF400314FF08064C0E9002307234FF015
:100F10004052C0E90213C0E9064200234FF080426C
:100F2000C0E90433C0E90833C0E90A33C0E90D233E
:100F3000C0E90F33C0E91133C0E91333C0E91533F9
:100F40000EF0E6F8044608B172B6FEE700F02AFE9D
:100F500000F027FE01224FF4006125480AF060FBF3
:100F6000642009F053FBFFF705FD322009F04EFB2A
:100F70004FF4FA7009F04AFBFFF794FC4FF4FA7053
:100F800009F044FBFFF7F6FC4FF4FA7009F03EFB62
:100F9000FFF788FC0EF0DCFC164A214616480EF0DE
:100FA00003FD164B164A2146186016480EF0FCFC4D
:100FB000154B18600EF0DEFCFEE700BFC4070024EE
:100FC000EC050024AC040024ED9B0008BC040024C4
:100FD0004D2100088521000848080024004C0258D3
:100FE0006C07002400300052180500240050014016
:100FF00000240258E4910208B31B0008E004002416
:10100000C0910208F13C0008DC04002400100050EC
:10101000142200212FA8012527F002FBD4F8E0308C
:10102000002241F6083143F4807396484FF0000BDC
:101030000326C4F8E0300227D4F8E0304FF480797A
:101040004FF008084FF4006A03F480730593059B82
:10105000D4F8E03043F00203C4F8E030D4F8E030D4
:1010600003F002030693069BD4F8E03043F04003FC
:10107000C4F8E030D4F8E03003F040030793079B56
:10108000D4F8E03043F01003C4F8E030D4F8E03096
:1010900003F010030893089BD4F8E03043F080037A
:1010A000C4F8E030D4F8E03003F080030993099BE2
:1010B000D4F8E03043F00403C4F8E030D4F8E03072
:1010C00003F004030A930A9BD4F8E03043F400735E
:1010D000C4F8E030D4F8E03003F400730B930B9BBA
:1010E000D4F8E03043F00803C4F8E030D4F8E0303E
:1010F00003F008030C930C9BD4F8E03043F0010399
:10110000C4F8E030D4F8E03003F001030D930D9BF8
:10111000D4F8E03043F02003C4F8E030D4F8E030F5
:1011200003F020030E930E9BD4F8E03043F4806369
:10113000C4F8E030D4F8E03003F480630F930F9BE1
:101140000AF06EFA002208214F480AF069FA0022DC
:101150004FF480714D480AF063FA41F208332FA929
:101160004848CDE92F35CDE931B60AF0CFF82FA99F
:101170004748CDF8CCB0CDE92F97CDE931BB0AF087
:10118000C5F82FA94048CDE92F85CDE931560AF0A1
:10119000BDF82FA93D48CDE92F95CDE931B60AF02C
:1011A000B5F82FA937484FF04009CDE92FA5CDE973
:1011B00031BB0AF0ABF8D4F8D4305A4605212B43A2
:1011C0007A20C4F8D430D4F8D43004242B400493CB
:1011D000049B09F045FA7A2009F074FA2D4A2E484A
:1011E0002FA9136823F0010313602C4B2F97856000
:1011F000C0E900352023C0E903434FF4C073C0E9C0
:1012000005934FF48053C0E9093B0723CDE93477B8
:10121000C0E907BACDE93034CDE932360DF0B4FE7D
:10122000074600287FF4CBAC08F006FF384608F0EC
:1012300051FF034600283FF4C4AC72B6FEE709F044
:10124000A5F9FFF7B7FBD5F8E030204643F000736F
:10125000C5F8E030D5F8E03003F000730393039B4A
:101260000AF0ECF9214620460AF0F6F90C4C4FF64C
:10127000FF73226812043FF5CBAE013BF9D272B680
:10128000FEE700BF0024025800180258001402585C
:101290000000025800400052E40400244041005283
:1012A000004402580268034B9A4201D109F09CB9EC
:1012B000704700BF0010004072B6FEE70A4B82B0D4
:1012C0000F216FF00100D3F8F42042F00202C3F8BE
:1012D000F4200022D3F8F43003F002030193019BC1
:1012E00002B009F0BDB900BF00440258026882B0E4
:1012F000094B9A420DD1A3F50063D3F8E02042F4E4
:101300000022C3F8E020D3F8E03003F40023019377
:10131000019B02B0704700BF004C02580F4B07B54D
:1013200002689A4217D10E4B07215A20D3F8D420D5
:1013300042F01002C3F8D4200022D3F8D43003F0D6
:1013400010030193019B09F08BF95A2003B05DF85B
:1013500004EB09F0B7B903B05DF804FB00100052CC
:101360000044025810B5BAB004461422002103A864
:1013700027F056F9C822002108A827F051F9236860
:10138000B3F1A04F38D14FF08062002308A8CDE917
:1013900008230DF0EBF808B1FFF78EFF174B002480
:1013A00003A91748D3F8E42042F01002C3F8E42060
:1013B000D3F8E42002F010020192019AD3F8E02061
:1013C00042F40072C3F8E0200422D3F8E03003F4C2
:1013D00000730293029B0223CDE903230D23CDE981
:1013E0000544079309F092FF7B202246072109F06C
:1013F00037F97B2009F066F93AB010BD0044025875
:101400000024025837B53C4B054602689A4270D119
:101410003A4B02213A4C4FF0007ED3F8D420DFF84B
:10142000ECC0204642F02002C3F8D4208022D3F83A
:10143000D43003F020030193019B1123C4E900C3BE
:101440000023C4E90232C4E9073220222361C4E93F
:101450000513C4E909E24FF4A0414FF40032C4E996
:101460000D33C4E90B120BF094FD08B1FFF724FF14
:101470000022234811460BF01AFE08B1FFF71CFFAB
:101480002C6313231F4A082125644FF4A0401E4CEF
:10149000C4E900230023C022C4E9023220222362CF
:1014A000C4E906124FF00071C4E909124FF420326A
:1014B000C4E90B022046C4E90433C4E90D330BF040
:1014C00068FD08B1FFF7F8FE00220F4811460BF047
:1014D000EEFD08B1FFF7F0FE6C63002205217920D4
:1014E000256409F0BDF8792003B0BDE8304009F06B
:1014F000E9B803B030BD00BF0030005200440258CC
:1015000000070024C001005294060024000200528B
:1015100010B5B4B00446C822002102A827F080F814
:101520002268184B9A422BD14FF00052002315210C
:1015300002A8CDE90223A1230522CDE90C23022331
:10154000CDE90E334FF40063CDE910130DF00EF822
:1015500008B1FFF7B1FE0C4B58200721D3F8E42067
:1015600042F00802C3F8E4200022D3F8E43003F08C
:1015700008030193019B09F073F8582009F0A2F8C1
:1015800034B010BD0010005000440258F0B5BFB098
:1015900004461422002107A827F042F8C82200219F
:1015A0000CA827F03DF82268534B9A4240F0A180E6
:1015B0004FF0007200230CA8CDE90C230CF0D6FFED
:1015C00008B1FFF779FE4D4B022500240926D3F818
:1015D000D42007A94A480A2742F48042C3F8D420FD
:1015E000D3F8D42002F480420192019AD3F8E0208B
:1015F00042F04002C3F8E020D3F8E02002F04002BD
:101600000292029AD3F8E02042F02002C3F8E020D0
:10161000D3F8E02002F020020392039AD3F8E020EE
:1016200042F08002C3F8E020D3F8E02002F080020C
:101630000492049AD3F8E02042F00202C3F8E020BA
:10164000D3F8E02002F002020592059AD3F8E020D8
:1016500042F00802C3F8E020D3F8E03003F00803BA
:101660000693069B4FF48443CDE90735CDE9094441
:101670000B9609F04BFE402307A921480B97CDE9B3
:101680000735CDE9094409F041FEC02307A91D48EB
:101690000B96CDE90735CDE9094409F037FE4FF443
:1016A000007307A917480B97CDE90735CDE9094421
:1016B00009F02CFE0C2307A913480B96CDE907353A
:1016C000CDE9094409F022FE042307A90F480B962F
:1016D000CDE90735CDE9094409F018FE4FF4006360
:1016E00007A90B480B96CDE90735CDE9094409F068
:1016F0000DFE3FB0F0BD00BF005000520044025844
:101700000018025800140258001C02580004025825
:10171000000C025870B5BAB004461422002103A888
:1017200026F07EFFC822002108A826F079FF226853
:10173000264B9A4247D14FF40052002308A8CDE926
:1017400008230CF013FF08B1FFF7B6FD204B02266B
:1017500000240525D3F8F02003A91E4842F4801286
:10176000C3F8F020D3F8F02002F480120092009A1F
:10177000D3F8E02042F48062C3F8E020D3F8E02000
:1017800002F480620192019AD3F8E02042F40072E0
:10179000C3F8E020D3F8E030079503F40073029318
:1017A000029B0123CDE90544CDE9033609F0AEFDE6
:1017B0004FF4806303A908480795CDE90336CDE9C6
:1017C000054409F0A3FD3AB070BD00BF00500140D0
:1017D000004402580028025800240258F0B5B9B05D
:1017E0000021142201A826F01BFF3F4B1968002995
:1017F00077D1012208A81A60C02226F011FF4FF00D
:101800008072002306A8CDE906230CF0AFFE08B1D4
:10181000FFF752FD354B022700260325D3F8D420CD
:101820000C2401A9324842F48052C3F8D420D3F8E2
:10183000D430059403F480530093009B40F2FF637F
:10184000CDE90365CDE9013709F060FD602301A909
:1018500028480594CDE90137CDE9036509F056FD27
:101860004FF6837301A924480594CDE90137CDE9EA
:10187000036509F04BFD4FF47F4301A91F48059410
:10188000CDE90137CDE9036509F040FD48F2331396
:1018900001A91B480594CDE90137CDE9036509F09D
:1018A00035FD4CF2037301A916480594CDE90137C3
:1018B000CDE9036509F02AFD4FF63F0301A912485F
:1018C0000594CDE90137CDE9036509F01FFD01233A
:1018D00001A90E480594CDE90137CDE9036509F06A
:1018E00015FD39B0F0BD00BF700800240044025857
:1018F000002002580004025800100258001C025830
:1019000000180258000C025800140258000802582F
:101910001A4B1A6810B582BB194A012440F2FF61C4
:1019200018481C60D2F8D43023F48053C2F8D43065
:1019300009F0D4FD6021144809F0D0FD4FF6837101
:10194000124809F0CBFD4FF47F41114809F0C6FD64
:1019500048F233110F4809F0C1FD4CF203710E48F3
:1019600009F0BCFD4FF63F010C4809F0B7FD2146D8
:101970000B48BDE8104009F0B1BD10BD6C08002453
:101980000044025800200258000402580010025877
:10199000001C025800180258000C0258001402588B
:1019A000000802580F2810B504468AB002D9012059
:1019B0000AB010BD01460022362008F051FE362044
:1019C00008F080FE184B694602A81C60174BD3F83C
:1019D000E82042F01002C3F8E820D3F8E83003F022
:1019E00010030193019B0CF0A7FC079BC3B90CF0FB
:1019F0007FFC0F4C0F4B236040F2E733E3600E4B4C
:101A0000B0FBF3F001380023606020462361A3603F
:101A10000DF0C4FE0028CAD120460DF073FDC7E7C3
:101A20000CF066FC4000E4E7780000240044025813
:101A3000740800240010004040420F00FEE7FEE75B
:101A4000FEE7FEE7FEE7704701480DF09DBD00BFD1
:101A50007408002401480BF0A7B900BFEC0500246E
:101A6000014808F039BF00BFE007002401480BF02F
:101A700069B800BF6C070024044808B50BF09CFB54
:101A80000348BDE808400BF097BB00BF9406002454
:101A900000070024014809F022B900BFC407002450
:101AA0000120704708B526F06FFE162303604FF043
:101AB000FF3008BD08B526F067FE16230360FEE779
:101AC00070B50D4614460E46731B9C4201DC204641
:101AD00070BDAFF3008006F8010BF5E770B50D4659
:101AE00014460E46731B9C4201DC204670BD16F85E
:101AF000010BAFF30080F5E74FF0FF3070474FF474
:101B0000005300204B607047012070470020704751
:101B10000B4A0346116810B509B90A4911601068EB
:101B200009490A4C0344091B8B4206D926F02CFEB6
:101B30000C2303604FF0FF3010BD1360FCE700BFC3
:101B4000C0080024B89402240000082400100000FB
:101B5000DFF834D008F0AAFC0C480D490D4A0023E8
:101B600002E0D458C4500433C4188C42F9D30A4A52
:101B70000A4C002301E013600432A242FBD326F09A
:101B800009FEFEF779FF70470000082400000024DA
:101B90004001002400E4020840030024B894022419
:101BA000FEE7704708B501F019FDBDE8084001F0F7
:101BB0009BBC01F015BD4068704741607047521AE8
:101BC00002EB5302B2FBF3F070470000024BC06817
:101BD0001B685B6A58437047C408002470470000C4
:101BE00037B51E4A4FF0804105464FF0FF30D2F81E
:101BF000E83043F00103C2F8E830D2F8E83003F0EF
:101C000001030193019B164B19600021D8601961F3
:101C10009960596001215961D369102203F0700362
:101C200092FAA2F2B2FA82F2D3400E4AD35C83B99E
:101C30000CF03CFB04460CF071F9B0FBF4F0E860EA
:101C400007480DF0ABFD064803B0BDE830400DF08D
:101C50001FBC0CF04DFB4400EDE700BF00440258F0
:101C6000C4080024B0C2020810B50446102125F0B3
:101C7000C4FE204610BD38B5036804461B6931B167
:101C80008568984763685B1B0344636038BD984769
:101C9000A060FBE770470000F8B50A4B0F461646F8
:101CA0001D7815B900252846F8BD074C00202146AF
:101CB00008F0A0FB2368002BF4D063683B60A368A6
:101CC0003360F0E7200900241009002410B5044611
:101CD000042125F092FE204610BD000008B50E4BF1
:101CE0004FF44872002019684FF4F073C1E90023E3
:101CF0000C23C1E9023008F0EDFA084B10B90122BB
:101D00001A7008BD1B78002BFBD1054B2E21054A0C
:101D1000054826F0E9F900BF1C0900242009002429
:101D200030920208439202086D920208032825D8D7
:101D3000DFE800F0020B131B114B08211A68B2FAFE
:101D400082F252090F4809F06BBC0D4B4FF48071C1
:101D50005A68B2FA82F25209F4E7094B4FF4007163
:101D60009A68B2FA82F25209ECE7054B4FF480719F
:101D70000548DA68B2FA82F25209E4E7704700BF18
:101D8000240900240024025800140258032825D8EE
:101D9000DFE800F0020B131B114B08211A68003A10
:101DA00018BF01220F4809F03BBC0D4B4FF4807166
:101DB0005A68003A18BF0122F4E7094B4FF400714A
:101DC0009A68003A18BF0122ECE7054B4FF4807186
:101DD0000548DA68003A18BF0122E4E7704700BFFF
:101DE000240900240024025800140258032811D8A2
:101DF000DFE800F00206090C0821074809F015BCCD
:101E00004FF48071F9E74FF40071F6E74FF48071F9
:101E10000248F3E7704700BF00240258001402583C
:101E200008B5032815D8DFE800F0020A0D100821D4
:101E3000094809F0EFFB431E5842584108BD4FF4D2
:101E40008071F5E74FF40071F2E74FF480710348B9
:101E5000EFE70020EFE700BF00240258001402580B
:101E600070B5084D00240126E0B2FFF7D9FF18B184
:101E70002B68012B18BF2E6001340435052CF3D1DB
:101E800070BD00BF24090024012380F8781080F879
:101E9000793070470020704741640039024B18BF09
:101EA00001211970704700BF9787022400207047F6
:101EB000836B0BB10846184770474FF6FF707047A9
:101EC000406803689B691847014B1868704700BF5A
:101ED00048090024704701F080BC01F00FBC01F0FC
:101EE000E1BD01F0D3BD000010B5044601F096FD40
:101EF00094F84B3013B1024B01221A7010BD00BF91
:101F00000C00002401F002BC10B5044611F09EFA4A
:101F100023682046D3F8AC30BDE81040184710B510
:101F2000044610F029FE60680368BDE810401B6994
:101F3000184710F0F7BC10B504467C2125F05DFD74
:101F4000204610BD024B00221A7010F027BD00BFC2
:101F50000C00002438B50446064D01F0FFFB0023B9
:101F6000284684F84A30FFF73BFE0123256184F8B8
:101F7000703038BD380900240368044607B5D3F82B
:101F800080309847236820469B6F984700F05CFF9D
:101F9000236820461B6F98470021292315220548F6
:101FA000009109F0ACF800F04FFF236820461B6F4A
:101FB0009847F8E7C407002490F834100D4B10B58B
:101FC00090F878401A788C4209D03AB90A490B4AFD
:101FD00008881488108001220C801A7010BD002A15
:101FE000FCD0064A0449148808880C80108000221E
:101FF000F3E700BF908702248E8702248C87022497
:1020000008B5094B1B888B4203D8084B1B889342A9
:1020100005D9074B9E21074A074826F065F8074B6C
:102020001980074B1A8008BD8C8702248E870224F2
:10203000D89202083B9302087E93020892870224FA
:1020400094870224034690F87A0018B15868036810
:102050001B6818477047000070B50D4619460B4BBA
:102060001D6035B90A4B40F2D2210A4A0A4826F0CF
:102070003BF8C0E90F52003A084B18BF01221A7012
:102080000368BDE87040D3F88C3018474809002435
:10209000D1930208099402087E93020896870224CD
:1020A000C0E90112C3604FF480720023C0E912231B
:1020B0001D4A038580F82A30C362038680F85830B1
:1020C000436680F87030436770B5C0E91A23BDF8E5
:1020D0001050164ABDF814602035C0E90433C0E939
:1020E0000633C0E90833C0E90E33C0E91033C0E954
:1020F0001433C0E917338267ADB20D4AB5421060A0
:102100000C4A15800C4A158028BF00250B4A38BFA1
:10211000012516800A4A80F834501680094A137047
:10212000094B036070BD00BF010000010000010108
:10213000988702248C870224928702248E870224A7
:10214000948702249087022460940208012B13B51F
:102150000ED8D35C152200930B460146084808F0C0
:10216000CEFF18B16FF0070002B010BD0020FBE7F2
:10217000CDE9001201463922014808F0D1FFF0E70D
:10218000C40700241FB5CDE90112062100910146C4
:10219000054809F025F8002814BF6FF0070000205B
:1021A00005B05DF804FB00BFC40700241FB54FF263
:1021B00001430B4C39220021ADF80C3003AB204613
:1021C000019344230093022308F0AAFF0021352342
:1021D00015222046009108F092FF04B010BD00BF08
:1021E000C407002408B5FFF7E1FF0C4B02221B686F
:1021F000C3F810240122C3F81024D3F8082442F0B5
:102200000102C3F80824D3F8082442F00202C3F8FC
:1022100008240322024B5A6308BD00BFC4070024F0
:1022200000100050074B07B5197839B9012206484C
:102230001A7029231522009108F061FF03B05DF8A0
:1022400004FB00BF34090024C4070024064B07B573
:1022500001932A233922002100930423034808F024
:102260005FFF03B05DF804FB08000024C4070024EE
:10227000064B07B501932A2339220021009304233A
:10228000034808F04DFF03B05DF804FB0400002490
:10229000C407002438B5144D04460020FFF746FD5E
:1022A0002A6892F86A30013382F86A3000F0C0FD83
:1022B0000E4B2A6819781B7882F84A1073B10C4DBE
:1022C0002B7803F0FF024BB90A4B1A60FFF7BEFFF1
:1022D000204608F004FF01232B7038BD0020BDE824
:1022E0003840FFF753BD00BF988702240C0000243C
:1022F000500900244C0900242DE9F043484E85B0D4
:1023000004463378002B00F08880DFF83891DFF83E
:102310003881D9F80050434F002D3ED10120424E64
:1023200008F074F923680095D3F80424386822F083
:10233000080200F59660C3F80424D3F8042402F0E0
:1023400008020092009AD8F80020C2F8AC00374882
:102350000661374E46613748C2F888003648C2F8F1
:10236000B000516A41F0010151620195D3F8042493
:1023700042F00802C3F80424D3F8043403F008033D
:102380000193019BFFF774FF01232046C9F8003039
:1023900005B0BDE8F04308F0A2BE03680025386828
:1023A0000295D3F80424254C22F00802C3F8042433
:1023B000D3F8042402F008020292029AD8F800200E
:1023C000C2F8AC001948046104F1011444611948D1
:1023D000C2F888001848C2F8B0002846516A41F097
:1023E000010151620395D3F8042442F00802C3F8B6
:1023F0000424D3F8043403F008030393039BFFF78A
:10240000C5FCFFF70FFF0E4B3570186828B1036845
:102410001B6A05B0BDE8F043184705B0BDE8F0837E
:102420005009002448090024E201B20100100050C4
:10243000E301920103009201B304C009E201920199
:10244000988702244C090024EC050024014608B5B5
:10245000034B186801B1012111F012F8012008BDE9
:1024600098870224034B00225A609A60024A1A603D
:10247000704700BF38090024109202084069704775
:1024800090F840007047036B23B9C06A003818BF4A
:102490000120704701207047806870477047043002
:1024A00010B50C460FC884E80F0010BD704700003F
:1024B00008B5034A4FF4E271024B034825F014FEBD
:1024C000309502084BBD02088B95020810B50446F2
:1024D000482125F092FA204610BD000000220E4B44
:1024E00010B5114604460360C26380F84020C0E97D
:1024F0000522C0E90722C0E90922C0E90B22C0E990
:102500000D22C0E90322C0E9012201200DF00AFBDF
:10251000024B1860204610BDC097020870090024C5
:1025200010B40C4611461A46036B3BB1C36B406BAB
:10253000E41A20445DF8044B26F07AB8C06AF8E744
:10254000036B10B573B1C36B426BC91A5318525C5D
:1025500098785C78000440EA04201043DB7840EA75
:10256000036010BDC26A5318525C59789878000411
:1025700040EA0120F1E7036B43B1C36BC91A436B17
:102580005A18585C527840EA02207047C36A5A18B9
:10259000585C537840EA03207047000070B5044649
:1025A000006B0D461646D8B1A36B934208D209239F
:1025B0000D4A9E210D4884F840300D4B25F094FDC6
:1025C0000368DB689847206B3246616B03681B69C0
:1025D000984710B90D2384F84030606BE56370BDF7
:1025E000E06A0844FBE700BFF99502088B950208F2
:1025F000E69502082DE9F843436904462BB9224BBE
:10260000E421224A224825F06FFD08228169FFF764
:10261000C5FFA16943F2300646F264370431204613
:10262000FFF78EFFA3691844A36A00F108029A42DB
:1026300006D3012300206361236AA361BDE8F88308
:10264000636900F1090108222046013321F00101EC
:102650006361A161FFF7A2FFD4F8189020464946B4
:10266000FFF789FF09F1020180462046FFF783FF4B
:1026700009F1040105462046FFF762FFB045D1D1BC
:10268000BD42CFD10120D9E73B96020884960208CB
:102690008B9502080129036838BF0121DB6A70B5F8
:1026A0000D4604469847A84204D223682046DB6AB8
:1026B000984705466B1EE6691022204606EB031676
:1026C00006F10801FFF76AFF06F110012046FFF747
:1026D00037FF236A043B0344C4E9055370BD00007F
:1026E000002148222DE9F0410446816180F8401024
:1026F000FFF754FFA6690423634A31462046FFF7DB
:102700000FFF48B10323614A4FF4967184F84030BB
:102710005F4B604825F0E8FC06F1080104235E4A9F
:102720002046A161FFF7FCFE38B10423574A4FF45D
:102730009A7184F84030594BEBE706F10C01042301
:10274000574A2046A161FFF7EBFE074638B1052343
:102750004E4A40F23B1184F84030524BD9E706F123
:1027600010012046FFF7ECFE054620B94E4B40F223
:102770004111464ACDE706F1140804234B4A20468E
:102780004146FFF7CDFE002849D0062384F84030AB
:102790000423474A06F118012046FFF7C1FE00282E
:1027A0003FD0072384F840304544424F0C22204656
:1027B0002946FFF7F3FE05F1080604233A462046B2
:1027C0003146FFF7ADFE94F84030002848D0002B8A
:1027D00048D1A36AAB4249D805F10C030435204621
:1027E000A3612946FFF7ACFE3044294660622046CB
:1027F000FFF7A6FE0644042220463146FFF7CEFE30
:1028000004232D4A31462046FFF78AFE002838D19E
:102810000123E6616361A3692362BDE8F0810127BA
:10282000B6E7002FC0D006F120012046FFF788FE52
:102830004FF47A7306F13001B0FBF3F0606020468C
:10284000FFF77EFE06F14001A0602046FFF778FE0C
:1028500006F14401E0602046FFF772FE2061A3E725
:10286000002BB9D00A2384F84030D6E7291D204632
:10287000FFF766FE85190C2220462946FFF78EFEDB
:1028800099E70B23EFE700BFB7960208D596020839
:10289000BC9602088B950208029702080797020867
:1028A0001F970208249702083A97020846970208E1
:1028B0004B9702085097020855970208C0E90A2171
:1028C00000220263FFF70CBF10B500230446084640
:1028D000E3620B6821639B689847A0622046BDE8CD
:1028E0001040FFF7FDBE000037B5144C144D2360B7
:1028F0000024144B1C60144B1C60144B2C601C6097
:10290000134B1960134B1A60134B1C60134B2A684E
:102910004FF4C0751C701C74C3E90244C3E906443B
:1029200003EB02130E4AD2686A4300924FF45042FE
:102930005B6809F07DFD204603B030BD9C9F0024FC
:10294000789F0024889F00246C090024989F00240D
:10295000909F0024949F00247409002410000024F8
:10296000540900244B68012B15D1CB681A071EBFF0
:1029700023F00F031033CB608B6818071EBF23F0C2
:102980000F0310338B60CB688A681B09120953430D
:102990000E4A13607047022B0ED1CB681A0703D082
:1029A00023F00F031033CB608B685A071EBF23F050
:1029B000070308338B607047002BFCD1CB685807A6
:1029C000F2D023F007030833EDE700BF809F002417
:1029D0000B4A13680B4430B413600A4A12689342DE
:1029E0000CD2094CD21A2568B2F5504F294428BFA1
:1029F0004FF45042216030BC09F07CBD30BC7047C0
:102A0000989F0024949F0024909F0024F8B5204CA8
:102A10000121204D064623681F4F1B01E9542368FE
:102A200005EB03139A601D4B1968226805EB02122F
:102A3000D1601A68F9680A441A6023680133236078
:102A40002368012B01D90023236023681B01EB5C61
:102A500033B10221304609F01FFD114B01221A60EB
:102A600022683046FB6805EB02154FF4C0726968B6
:102A70005A4309F042FD0B4B1B681A7A3AB99B7A0C
:102A80002BB9094B1868BDE8F8400DF0C1B8F8BD86
:102A9000789F0024100000245409002474090024A5
:102AA000889F00247C9F00247009002472B6FEE7F2
:102AB000014B01221A6070478C9F002438B5164DD7
:102AC00004462B6813B1154B1B681BBB144B1868CD
:102AD000037A63B9134B144A1B681B01D35C012BA7
:102AE00005D10E4B1B6813B903681B6998470F4A41
:102AF0001368012B0CD10E4B0B491B681B01CB5CDF
:102B000033B92B6823B902212046136009F023FF53
:102B1000022038BD0120FCE78C9F002468090024B6
:102B20007C9F00246C09002410000024889F00244E
:102B3000789F002470B50546002A35D0002B33D08D
:102B40001A4803240461EC6826074FF4166618BF80
:102B500024F00F04466018BF103404602409C460D8
:102B60002C6914F00F0418BFC4F1100484601048DD
:102B7000FFF7BAFE0F4C6A6C0F4B0D4D1A602846DA
:102B8000FFF79CFF20602368022B05D10B4B4FF011
:102B9000FF3118680DF010F82368012BEFD10023E6
:102BA000074A1360074A136070BD00BF5409002430
:102BB0006C070024849F00247C9F0024700900245B
:102BC0008C9F0024680900242DE9F04F9946436941
:102BD00085B004460F4690462BB9294BB021294AAF
:102BE000294825F081FA08228169FFF7D7FCA669F8
:102BF00020463146FFF7BFFCB11C83462046FFF755
:102C0000BAFC311D82462046FFF79AFC06F1080106
:102C1000A36A054642189A4226D243F230039B45E6
:102C200017D146F264339A4513D190B10246A1619F
:102C30002046FFF7B3FC0E9B01462A462046CDF8FE
:102C40000080CDE901933B46FFF774FF63690133D0
:102C50006361A3692B4405B908330133626A23F029
:102C600001039342A36109D1012301206361236A17
:102C7000A36180F0010005B0BDE8F08F0020F8E707
:102C80003B9602085A9702088B950208F8B504464D
:102C9000816916460822FFF781FCA7692046391D85
:102CA000FFF74EFC07F10801024605462046FFF7F4
:102CB00075FC01466EB12A46074C084D334607485D
:102CC000FFF712FE2846FFF7F9FE20602368002B6D
:102CD000F8D00120F8BD00BF849F00246C070024B9
:102CE0001B4AD0F80CC0F0B54FEA0C1314685568B5
:102CF000184E194FB3FBF4F104FB11334D43116926
:102D000001FB03F401232D0173633F68D368FF1AAD
:102D10001905BC4517D39268C2F110020A437264C8
:102D20000E4AC3F1320311681B010A4A21442944A7
:102D3000D163136400231361094BD3614368D360EB
:102D4000084B1360F0BD41F010017164E8E700BF6B
:102D50005409002400100052809F00249C9F0024EE
:102D60000B0009FF012301000C4B002202701968BF
:102D70008260013119601968012900D91A60084B75
:102D8000084A1B68D2689B1AC2689A4202D3064B53
:102D900001221A60054B18680CF03ABF6C09002438
:102DA000809F00245409002468090024700900242D
:102DB0000121002208B508460CF0B4FE0A4B186049
:102DC00028B90A4B28210A4A0A4825F08DF9002221
:102DD000042101200CF045FF074B186018B9074B80
:102DE0002C21034AF0E708BDA49F0024FC970208A9
:102DF0004598020874980208A09F0024C59802080C
:102E0000024B4FF0FF3118680CF0D6BEA49F00248F
:102E1000014B18680CF0FCBEA49F0024024B00215B
:102E200018680CF0C9BE00BFA49F0024FFF7F0BFD4
:102E30000023034803491A4600680CF04DBF00BF49
:102E4000A09F00243000002413B50023074C01A9E3
:102E50001A4620680CF071FF4FF0FF33002201A9E1
:102E600020680CF06AFF02B010BD00BFA09F0024D4
:102E700003685B6C184701207047FEE740F2EF30B3
:102E80007047000010B504464FF0FF31D0F8A40D94
:102E90000CF006FE606803681B68984778B9637A8F
:102EA0006BB1237A5BB984F8A03D204623685B6A46
:102EB0009847D4F8A40DBDE810400CF014BE0B499F
:102EC0000B4A0B681B01D35C012BF2D1207A00283E
:102ED000EFD1A07A0028ECD1086884F8A03D02EB7D
:102EE00000102372FFF7FCFEE3E700BF6C0900242B
:102EF00010000024054B4FF080620360044BC3F8C0
:102F00008820BFF34F8FBFF36F8F7047689A020816
:102F100000E100E010B5044640F6A851FFF7EAFFD3
:102F2000204624F06AFD204610BD0000104B82B000
:102F3000D3F8D42042F01002C3F8D420D3F8D42020
:102F400002F010020192019ADA6F42F01002DA6781
:102F5000DA6F22F01002DA67064B074A1A62074A54
:102F60005A62074B4FF080629A6002B0704700BF10
:102F700000440258E0070024C93100087B2E0008F5
:102F800000E100E008B50A2809D8DFE800F00610E3
:102F90000E080808081010101000022008BD054B8C
:102FA0009121054A054825F09FF80020F6E7012009
:102FB000F4E700BF07990208229902086D990208F8
:102FC00038B50C46887FFFF7DDFF124BA58AE28AF1
:102FD000586342EA054221695A64628BD963521BE5
:102FE0001A642568082D0ED19A611A6158620A4A3E
:102FF000207F42EA0062DA61E2681A62074A596198
:10300000D9601A6038BD0022D8611A61E2689A63FB
:10301000034AF6E7001000520900010001230200F4
:103020000123030008B50B280BD8DFE800F00612D7
:10303000100A0A0A0A0808080808022008BD052024
:10304000FCE7054B7021054A054825F04DF80020A6
:10305000F4E70120F2E700BF07990208BC990208D3
:103060006D9902082DE9F8434F7F89463846FFF7EE
:10307000D9FF99F81E5080462846FFF7D3FF064631
:103080002846FFF77FFFB9F81410B9F81A40B9F8CD
:103090001820454B641A521A1C649C611A61B9F8D5
:1030A0001620586342EA0142D9F810105A64D9F840
:1030B0000420D963DA60D9F8004099F81C20802CEC
:1030C00022D00FD8202C66D0402C64D0042C5CD0A9
:1030D00048EA0260344BAF4240F40030D86160D01F
:1030E000324A3FE0B4F5807F04D0B4F5007FEFD1E1
:1030F0002F4800E02F4840EA0262DA61D9F80C203C
:103100001A625E6259612CE048EA0260D9F8084010
:1031100040F40030D8615E625961211DD962217886
:1031200041B1012921D0244B40F20B11234A2448FC
:1031300024F0DAFFDA69618822F47F42013922F053
:10314000100242EA0122DA610122174BD96941F0EB
:103150002001D961D9698906FCD410219960002A1F
:10316000BED0184A1A60BDE8F883D969FF3A608872
:1031700021F47F4118BF0122013821F0100141EAFA
:10318000002141F01001D961DFE748EA026242F410
:103190000032DA61B5E748EA0262034B42F40032DA
:1031A000F7E742F20132DDE700100052012301008F
:1031B000090002000A000200069A0208209A02088A
:1031C0006D99020801230200024B1B6858680368CE
:1031D0005B6918479887022490F8A03D10B5044613
:1031E000D3B903689B6A984719491A4A0B681B01AF
:1031F000D35C012B2AD11848006838BB207A28BB41
:10320000A07A18BB086884F8A03D237202EB001076
:10321000BDE81040FFF764BD037A43B10023037299
:103220000B4B18680B4B03EB0010FFF79DFD60681C
:1032300003681B68984748B9637A3BB1236884F8F0
:10324000A00D20465B6ABDE81040184710BD00BFC6
:103250006C090024100000246809002470B504469D
:103260000E4B0C3000262546602260602672667286
:1032700045F8203B294610F047FA04F55A63EE6002
:1032800024359D42FBD184F8A06D0020C4F8A46DC4
:103290000CF0D1FBC4F8A40D204670BD689A02085A
:1032A000034B1A68D207FCD423229A60704700BFF0
:1032B000001000520B4A5369DB0311D500290FDDC2
:1032C00000F01F031944BFF34F8F0144C2F8680296
:1032D00020300B1A002BF9DCBFF34F8FBFF36F8F39
:1032E000704700BF00ED00E030B5104C2568ED07D9
:1032F000FCD423250904FF2BA5604FF0010541EA0A
:10330000050165636164E0630CD0094922F07F42E6
:10331000656241EA0363E361064B22626061E0603B
:10332000236030BDE561044BA263F9E70010005251
:1033300009000100010002000100030030B50E4C3D
:103340002568ED07FCD423251204FF2BA5604FF060
:10335000010542EA050265636264E063E16007D04B
:10336000064A42EA0363E36165626061226030BD40
:10337000034BE3612560FAE70010005201000200F0
:10338000010002FF30B50B4C2568ED07FCD4232566
:1033900012041B06A560012543F400332A4365632C
:1033A0006264E063E160E361034B65626061236036
:1033B00030BD00BF00100052010002000120704724
:1033C0004020704700EB81100830704700EB8110FF
:1033D000083070470120704743F24C50704743F269
:1033E0004C5303FB01000830704743F24C5303FB7E
:1033F00001000830704701207047182070471823DB
:1034000003FB010008307047182303FB010008305C
:103410007047084600F05CBF034B10B504460360DC
:103420000EF0E1FC204610BD209B020810B50446BA
:10343000FFF7F2FF4821204624F0DFFA204610BDB6
:10344000034B10B5044603600EF0CDFC204610BDC2
:10345000EC9A020810B50446FFF7F2FF43F254510C
:10346000204624F0CAFA204610BD0000034B10B5D8
:10347000044603600EF0B7FC204610BDB89A02085F
:1034800010B50446FFF7F2FF2021204624F0B5FADC
:10349000204610BD094B10B50446036000F5565098
:1034A0000830FFF7B9FF04F13400FFF7C9FF04F15A
:1034B0001400FFF7DBFF204610BD00BF549B02083D
:1034C00008B50248FFF7E6FF08BD00BF60AE002464
:1034D00010B50446FFF7DEFF43F23071204624F0BA
:1034E0008CFA204610BD00002DE9F34100F054FC99
:1034F0000024054600F054FC234601462246284697
:10350000009419F0A3FC274B274A2046274D1A6048
:1035100004F0A0FD264B274A27489A6019F042FB89
:103520002B68BFF35B8FDB0735D4284624F067FA9E
:1035300088B3224C224B04F1140004F13408214FCB
:1035400000F5575623606060C4F80880E760266184
:103550000EF04AFC1C4B404663610EF045FC1B4BD1
:10356000384663630EF040FC04F54053184A03F5F7
:10357000BA60C3F8882505F047F82246311F304667
:1035800004F0BEFF304600F0A3FE124824F0CAFD4E
:10359000284624F040FA104802B0BDE8F041FEF79A
:1035A000D9BC00BFFC87022424A000245CAE002408
:1035B00044A0002428A000243400002460AE00248D
:1035C000549B0208E8E30024B89A0208EC9A020827
:1035D000209B0208C1340008A89F00247047000007
:1035E0000148FEF7C9BC00BFA89F002473B50E4C6C
:1035F0000E4B0F4E20460F4D3360FFF72FFE28462F
:103600001DF08EFA0C4816F0C9FF4FF448734FF4C2
:10361000F07221460948CDE9003233462A46FEF7CA
:103620003FFD02B070BD00BFB0A00024C8920208E8
:1036300058AE002444A0002428A00024A89F002401
:103640000148FFF757BC00BFB0A00024002070471E
:1036500081807047C1807047018170474181704708
:103660007047704770477047704710B4C48803684C
:10367000121B84885B6D091B12B25DF8044B09B202
:1036800018474FF6FF7383814FF0FF3303621368CF
:10369000C36110607047002070478B8883800120D1
:1036A0007047704780F82610704790F826007047E2
:1036B000002210B5B1F90840B1F90A100280428029
:1036C0008480C18010BD0022028042808280C2803E
:1036D00070470177704780ED080A704780F8241022
:1036E000704780F825107047012070479830704768
:1036F0008C3070478430704770470000024B902236
:1037000083F85A23704700BF00E100E0704701636F
:10371000C0E90D21704770477047704700EB81008A
:10372000114640680368DB68184780F83C10704712
:1037300010B504462C2124F060F9204610BD10B5C8
:103740000446482124F059F9204610BD10B504461E
:10375000BC2124F052F9204610BD000038B50446C3
:103760000FF035F923685D6E15F0A0FD0146204687
:10377000A847236808492046D3F8885000231A46F2
:10378000A8476368054A5364054B5A60054A1A63A3
:103790009A63054A5A6338BD009411D098E6002414
:1037A00050E60024000000D00094110038B5044613
:1037B0000D46406C4FF0FF310CF072F9606C0CF06C
:1037C00092F9242303FB0545002385F8283094F85B
:1037D00028300BB9236BA36338BD0FF0A9B80FF0E5
:1037E0000ABA90F8252012B103685B691847704740
:1037F000124A5369DB0370B51ED50023C2F884302A
:10380000BFF34F8FD2F8803043F6E074C3F3C900A2
:10381000C3F34E335B0103EA0406014646EA8175B1
:103820000139C2F87452F9D2203B13F1200FF2D1C2
:10383000BFF34F8FBFF36F8F70BD00BF00ED00E08F
:1038400008B531B1044B4FF4B871044A044824F070
:103850004BFC90F8290008BD609B0208749B02088D
:10386000FE9C020810B531B1064B4FF4B571064A03
:10387000064824F039FC406811460368BDE8104052
:103880001B6B1847609B0208489D0208FE9C0208BB
:1038900008B529B1034B7921034A044824F024FCDC
:1038A000C06808BD609B0208F69E0208FE9C0208E4
:1038B00010B5044629B1194BA221194A194824F020
:1038C00013FC052A15D8DFE802F0031115171C2296
:1038D000406803681B69984758B1012384F8293070
:1038E00084F82C300023C4E9043302E0002380F87C
:1038F000293010BD0362F5E70362012380F82A3006
:10390000F0E7002380F8293001230362F1E7003B50
:1039100018BF012380F82D30EBE700BF609B020841
:10392000ABA00208FE9C020810B50C4611461A46D0
:103930002CB1064B9021064A064824F0D5FBC46002
:1039400040680368BDE810409B681847609B020808
:103950007FA20208FE9C020808B529B1054B82210E
:10396000054A064824F0C0FBC0E90411C0E906324C
:1039700008BD00BF609B02085AA40208FE9C020812
:1039800090F83D3010B5044653B14FF0FF31406C14
:103990000CF086F8002384F83D30012384F83E3093
:1039A00010BD90F825201AB190F8242002B11860BB
:1039B0007047000010B50446104629B1134BD021C2
:1039C000134A144824F090FB94F8293033B1124B79
:1039D0001B6893F86B2063691344636194F82B3080
:1039E0000BB9012010BDA368036303685B699847A6
:1039F000002394F82C0084F82B300028F1D194F89F
:103A00002D30002BEED184F82900EBE7609B0208F3
:103A100016A60208FE9C02089887022470B51A4C6C
:103A200005460EF0C7FF94F8293013B994F82A30F0
:103A3000ABB1E169D4E90532534322694A43934269
:103A40000DD394F83C0038B19B1AB3FBF1F29942C4
:103A500098BF02F1FF326262012384F82E30012305
:103A6000206C84F83D300CF0D3F894F83E302BB144
:103A7000606C0CF038F8002384F83E306868036806
:103A8000BDE870401B69184750E60024044B4FF016
:103A90008062C3F88820BFF34F8FBFF36F8F7047EA
:103AA00000E100E0024B4FF080629A60704700BF77
:103AB00000E100E0F8B5034690F82800D8B94FF4CB
:103AC00080729E6B0125D8609A8506F58C1218616C
:103AD00002F5A05258619861D861186258629D62DF
:103AE00083F82E00D3E90C473C44A2420AD90B4B81
:103AF00052210B4A03E00B4B40F2C5110A4A0B4816
:103B000024F0F2FA9E609A634FF4487381F83450BF
:103B1000CB864FF4F07308630B87F8BD6EA90208DB
:103B2000A9A90208B7A70208E7A70208FE9C020895
:103B3000002370B5124E04468380124B0360336835
:103B400093F858200AB1D86C00B998680368DB6A0A
:103B50009847431E5D425D413368D86C30B10368BD
:103B6000DB6A9847012808BF45F001052DB9064BCF
:103B70002721064A064824F0B7FA204670BD00BF48
:103B8000988702245CAC02084CAB0208AAAB02087E
:103B9000E3AB020870B5244E3568BFF35B8F15F0B8
:103BA00001053FD1304623F02AFF00283AD01F4CB0
:103BB0001F4B04F134002561E584A562A585C4E9A5
:103BC0000035C4E9025516F048FF04F1580011F021
:103BD00021F9184B2046A365174B40F8843BFFF7AB
:103BE000A7FF164B1648C4F884302433C4F890500D
:103BF000C4F88C306423C4F89C50C4F8A850C4E9BD
:103C000028350023C4F8AC30C4F8B030C4F8B43060
:103C1000C4F8B8300B4BC4F8983024F083FA30461F
:103C200023F0F9FE014870BD90E5002494E50024DE
:103C3000D4C802087CAC0208F4AC020820C902080F
:103C4000F936000858C902082DE9F7430446012651
:103C50004FF416674FF0FF31206C0BF0ADFF4FF0C3
:103C6000FF31606C0BF01CFF94F82E3043B3656895
:103C7000D4F820802B6884F82B60B8F1000F23D093
:103C80005B6A414628469847002323622B684FF41D
:103C9000487200972846D3F814804FF4F073A16857
:103CA000C047236984F82C0001332361F0B12B68ED
:103CB00028469B6A984701380023E06084F82E303C
:103CC000606C0BF010FFC5E7626A002ADED0284660
:103CD000D3E909939847616A01442846C847236994
:103CE000626AC4F8248013442361CFE70120E3E72C
:103CF000014808B5FFF7A8FF50E6002438B514487E
:103D00000025FEF7EBFB134C134B2A4629460120F6
:103D100023604FF48073A563A387A38584F83E5086
:103D200084F82E50C4E90C55C4E91055C4E9015576
:103D3000C4E90355C4E90555C4E90755C4E9095563
:103D40000BF0F0FE206428460BF075FE606438BD71
:103D500098E6002450E6002440AD0208704710B5F4
:103D60000446042123F049FE204610BD08B503296E
:103D70000FD8DFE801F00A02060A04F0B7F940683C
:103D800008BD04F0B3F98068FAE704F0AFF9006801
:103D9000F6E70020F4E700000048704790AD020805
:103DA0000C20704713B5002451B1036801AA019497
:103DB0008DF803409C680DF10303A04702B010BDCD
:103DC0000846FBE7C0897047008A7047C088704783
:103DD00080887047807A00F07F007047807AC00941
:103DE00070470020704700009FED010A704700BF38
:103DF00000000000704710B50446082123F0FDFDC7
:103E0000204610BD7047704700F5987308684968F0
:103E100003C37047704770474160704770470000A8
:103E2000064BC0F84801C0F84C310023C0F85031AF
:103E300000F5A273C0F84031704700BF054100088B
:103E400001230372704770477047704710B4416890
:103E50000346C2689B68541001EB6200D20748BF5A
:103E60000A595DF8044B48BFD358184703464068C9
:103E700030B19A681AB9D86800F001007047012083
:103E8000704710B504460C2123F0B7FD204610BD45
:103E900010B50446102123F0B0FD204610BD10B52A
:103EA00004464FF4AE7123F0A8FD204610BD10B5B6
:103EB0000446402123F0A1FD204610BD10B515F0A9
:103EC000F5F90368BDE81040DB6B1847054B014668
:103ED0001B782BB1406818B103680C315B6E184732
:103EE000704700BF97870224037A70B50546BBB9B7
:103EF00040680368DB69984704463CB9686805F187
:103F00000C010368BDE870401B6E1847A18820466D
:103F10006B8FC91A236809B21B6B9847A469ECE739
:103F200070BD10B50446D0F8400158B10368DB6895
:103F3000984738B1D4F8400103689B68984700233C
:103F4000C4F8403110BD70B5044690F83900013016
:103F500094F83830C0B2984284F8390005D901236A
:103F60002372002384F8393070BDB4F93A2000215F
:103F700017F0AAFAC30706D500284FF6FF73C8BF8B
:103F80000123184400B2238AC01AA087606803681E
:103F9000DB69984705462DB960680368BDE8704045
:103FA0005B691847A9882846A38F19442B6809B272
:103FB0001B6B9847AD69EEE72DE9F14FD0E9556AE3
:103FC0000746B06803681B6A9847B0F53D7F05D285
:103FD000444BA321444A454824F086F8706803689E
:103FE0001B6A9847172803D8414BA4213E4AF2E7A1
:103FF000F06803681B6A98470B2803D83D4BA5213E
:10400000394AE8E7DFF8F49015F050F9043015F07C
:104010008BF9D9F8000010B10368DB689847D9F82C
:10402000000010B103681B689847DFF8D480D8F807
:10403000000010B103685B699847D7F83C0110B1E4
:1040400003685B689847D8F8000010B103681B68E4
:104050009847D7F83C0110B103689B689847F0680F
:1040600000214FF0000B03685B6A9847224B04461F
:10407000C0F804B080F808B059460360B06803681F
:104080005B6A9847054604F01BFC70685946036854
:104090005B6A98470646294604F0BEFB331DC7F805
:1040A0003C612846C9F80040C8F80050CAF8003002
:1040B0002B68C6F808A0DB68EE6398473368304683
:1040C0001B6898472146284617F0F8F923682046D0
:1040D0001B699847236820465B6901B0BDE8F04F33
:1040E000184700BF90AE02081EAF0208FCAF0208DE
:1040F00051B00208F4B0020898B50208E087022423
:10410000DC8702242DE9F14FD0E9556A0746B068F3
:1041100003681B6A9847B0F52D7F05D2444BA32155
:10412000444A454823F0E0FF706803681B6A9847DB
:104130000F2803D8414BA4213E4AF2E7F0680368F8
:104140001B6A98470B2803D83D4BA521394AE8E75D
:10415000DFF8F49015F0AAF8043015F0E5F8D9F876
:10416000000010B10368DB689847D9F8000010B16F
:1041700003681B689847DFF8D480D8F8000010B1B6
:1041800003685B699847D7F83C0110B103685B6826
:104190009847D8F8000010B103681B689847D7F813
:1041A0003C0110B103689B689847F06800214FF00C
:1041B000000B03685B6A9847224B0446C0F804B0C2
:1041C00080F808B059460360B06803685B6A984796
:1041D000054604F067FA7068594603685B6A9847B9
:1041E0000646294604F022FA331DC7F83C612846EA
:1041F000C9F80040C8F80050CAF800302B68C6F86B
:1042000008A0DB68EE639847336830461B68984720
:104210002146284617F052F9236820461B69984723
:10422000236820465B6901B0BDE8F04F184700BF26
:1042300090AE020897B10208FCAF020851B0020824
:10424000F4B0020898B50208E0870224DC87022453
:10425000044B1B6893F858200AB1D86C00B99868D1
:10426000704700BF98870224F8B5174604460E46EB
:1042700015F02CF9124B00251C602946114B2360C8
:10428000114BC4E95135114B1868C4E95355036803
:10429000C4E94F559B68C4E955769847284603F012
:1042A000D9FEFFF7D5FF1DF03CFDFFF7D1FF1DF054
:1042B000AFFDFFF7CDFF1DF0B7FD2046F8BD00BFF5
:1042C000EC87022444B502082CB502089887022422
:1042D000064BC0F84801C0F84C310023C0F85031FB
:1042E00000F5A273C0F84031704700BF05410008D7
:1042F000064BC0F84801C0F84C310023C0F85031DB
:1043000000F5A273C0F84031704700BF6146000855
:10431000064BC0F84801C0F84C310023C0F85031BA
:1043200000F5A273C0F84031704700BF2545000872
:10433000064BC0F84801C0F84C310023C0F850319A
:1043400000F5A273C0F84031704700BFB93F0008C4
:10435000064BC0F84801C0F84C310023C0F850317A
:1043600000F5A273C0F84031704700BFED4300086C
:1043700003685B6A184700002DE9F041174B0026DF
:104380000546044646600F46067245F80C3B284633
:1043900011F0DEFC124B84F838701B7884F8396019
:1043A000A68723B9012323722046BDE8F0810D4B77
:1043B00028460D4FB3F90080E368B7F900109B6BF6
:1043C00026619847E36841462846DB6B98472846B4
:1043D00011F039FC3B885B426387E5E7BCB5020816
:1043E000978702248E8702248C8702242DE9F047C8
:1043F000D0E9556A0746B06803681B6A9847B0F56C
:104400003D7F05D2404BA321404A414823F06CFE3A
:10441000706803681B6A9847172803D83D4BA4218E
:104420003A4AF2E7F06803681B6A98473F2803D8C6
:10443000394BA521354AE8E7DFF8E09014F036FF64
:10444000043014F071FFD9F8000010B10368DB6884
:104450009847D9F8000010B103681B689847DFF847
:10446000C080D8F8000010B103685B699847D7F89E
:104470003C0110B103685B689847D8F8000010B1A0
:1044800003681B689847D7F83C0110B103689B6824
:1044900098470021F068FFF76BFF14210446FFF7EF
:1044A0006BFFB068002103685B6A9847054604F01B
:1044B00007FA7068002103685B6A98470646294638
:1044C00004F0AAF9331DC7F83C612846C9F800403A
:1044D000C8F80050CAF800302B68C6F808A0DB689E
:1044E000EE639847336830461B6898472146284654
:1044F00016F0E4FF236820461B699847236820468E
:104500005B69BDE8F047184790AE020869B202083F
:10451000FCAF020851B00208F4B00208E0870224A0
:10452000DC8702242DE9F047D0E9556A0746B068D8
:1045300003681B6A984743F24B53984205D8414B96
:10454000A321414A414823F0CFFD706803681B6AEC
:1045500098470F2803D83E4BA4213B4AF2E7F06866
:1045600003681B6A98473F2803D83A4BA521364A6F
:10457000E8E7DFF8E49014F099FE043014F0D4FE7C
:10458000D9F8000010B10368DB689847D9F800003B
:1045900010B103681B689847DFF8C080D8F80000A6
:1045A00010B103685B699847D7F83C0110B1036804
:1045B0005B689847D8F8000010B103681B689847FB
:1045C000D7F83C0110B103689B6898470021F06858
:1045D000FFF7CEFE14210446FFF7CEFEB06800219F
:1045E00003685B6A9847054603F0C4FF70680021C2
:1045F00003685B6A98470646294603F099FF331D16
:10460000C7F83C612846C9F80040C8F80050CAF80D
:1046100000302B68C6F808A0DB68EE639847336863
:1046200030461B6898472146284616F047FF236806
:1046300020461B699847236820465B69BDE8F04720
:10464000184700BF90AE02085AB30208FCAF020838
:1046500051B00208F4B00208E0870224DC8702248B
:104660002DE9F047D0E9556A0746B06803681B6A30
:10467000984741F20333984205D8414BA321414A60
:10468000414823F031FD706803681B6A98470F2882
:1046900003D83E4BA4213B4AF2E7F06803681B6A4B
:1046A00098473F2803D83A4BA521364AE8E7DFF878
:1046B000E49014F0FBFD043014F036FED9F800004D
:1046C00010B10368DB689847D9F8000010B103689F
:1046D0001B689847DFF8C080D8F8000010B1036865
:1046E0005B699847D7F83C0110B103685B6898474D
:1046F000D8F8000010B103681B689847D7F83C0150
:1047000010B103689B6898470021F068FFF730FEFE
:1047100014210446FFF730FEB068002103685B6A8D
:104720009847054604F020F87068002103685B6A2A
:1047300098470646294603F0E3FF331DC7F83C615E
:104740002846C9F80040C8F80050CAF800302B6865
:10475000C6F808A0DB68EE639847336830461B68EC
:1047600098472146284616F0A9FE236820461B6973
:104770009847236820465B69BDE8F047184700BFAB
:1047800090AE02083DB40208FCAF020851B0020826
:10479000F4B00208E0870224DC870224406A7047F4
:1047A000806A704770478B88C069DB0A0A6850F8D6
:1047B00023001044704710B50446BAB1107B68B1AD
:1047C000537BD27A1B0203F4E0631A43236A03EBA0
:1047D00082031A888A4202D193F9020010BD05D8DB
:1047E0000138043380B20028F3D1F7E70020F5E761
:1047F00010B504462C2123F000F9204610BD00001E
:1048000030B58BB00446BDF860500895BDF85C50DB
:1048100007959DF8505006959DF84C5005959DF8CC
:10482000485004959DF8445003959DF840500295DA
:104830009DF83C500195BDF83850009516F0CAF926
:10484000064B20462360159BE361169B2362199B50
:1048500063621A9BA3620BB030BD00BFE0B50208D3
:10486000806A704770477047704770477047006BA9
:104870007047406B704780F82C10704710B4036885
:10488000046BD3F8A430624361435DF8044B1847CE
:10489000D0ED0C7A0368F8EEE77A10B420EE270A20
:1048A000D3F8A440B5EEC00AF1EE10FA1ADBB6EE6A
:1048B000007A30EE070ABDEEC07A17EE101A60EEED
:1048C000A70AF5EEC00AF1EE10FA1EDBF6EE007A4A
:1048D00070EEA70AFDEEE07A17EE902A23465DF807
:1048E000044B1847BDEEC07AF8EEC76A17EE103ACF
:1048F000013B30EE660AF7EE086A30EE260ABDEE9E
:10490000C00A10EE101A1944D9E7FDEEE07AB8EEAD
:10491000E77A17EE903A013B70EEC70AB7EE087AD5
:1049200070EE870AFDEEE00A10EE902A1A44D5E7F1
:1049300010B40368046BD3F8B03062435DF8044BE5
:104940001847D0ED0C7A0368F8EEE77A10B427EE3A
:10495000800AD3F8B040B5EEC00AF1EE10FA0BDBD6
:10496000F6EE007A30EE270AFDEEC07A17EE902AB6
:1049700023465DF8044B1847FDEEC07AB8EEE77A9F
:1049800017EE903A013B30EE470AB7EE087A30EE68
:10499000070ABDEEC00A10EE102A1A44E8E710B468
:1049A0000368446BD3F8BC30624361435DF8044B49
:1049B0001847D0ED0D7A0368F8EEE77A10B420EED0
:1049C000270AD3F8BC40B5EEC00AF1EE10FA1ADBA4
:1049D000B6EE007A30EE070ABDEEC07A17EE101A76
:1049E00060EEA70AF5EEC00AF1EE10FA1EDBF6EE55
:1049F000007A70EEA70AFDEEE07A17EE902A2346C1
:104A00005DF8044B1847BDEEC07AF8EEC76A17EEA2
:104A1000103A013B30EE660AF7EE086A30EE260ADD
:104A2000BDEEC00A10EE101A1944D9E7FDEEE07A87
:104A3000B8EEE77A17EE903A013B70EEC70AB7EE90
:104A4000087A70EE870AFDEEE00A10EE902A1A440A
:104A5000D5E710B40368446BD3F8C03062435DF807
:104A6000044B1847D0ED0D7A0368F8EEE77A10B4DE
:104A700027EE800AD3F8C040B5EEC00AF1EE10FA76
:104A80000BDBF6EE007A30EE270AFDEEC07A17EE69
:104A9000902A23465DF8044B1847FDEEC07AB8EE25
:104AA000E77A17EE903A013B30EE470AB7EE087A04
:104AB00030EE070ABDEEC00A10EE102A1A44E8E7ED
:104AC000D0F82C31026B002B07DB02EB430090FB8C
:104AD000F2F000EBD070401070476FF0010101FB65
:104AE0000320013890FBF2F000EBD0704010404200
:104AF0007047D0ED4B7A90ED0C0AF8EEE77AB8EEFD
:104B0000C00A87EE800A7047D0F82C017047D0F8B1
:104B10003031026B002B07DB02EB430090FBF2F01D
:104B200000EBD070401070476FF0010101FB0320D3
:104B3000013890FBF2F000EBD0704010404270471B
:104B4000D0ED4C7A90ED0C0AF8EEE77AB8EEC00A98
:104B500087EE800A7047D0F830017047D0F83431C2
:104B6000426B002B07DB02EB430090FBF2F000EB03
:104B7000D070401070476FF0010101FB0320013835
:104B800090FBF2F000EBD070401040427047D0ED47
:104B90004D7A90ED0D0AF8EEE77AB8EEC00A87EE8E
:104BA000800A7047D0F834017047D0F83831426B32
:104BB000002B07DB02EB430090FBF2F000EBD07020
:104BC000401070476FF0010101FB0320013890FB9A
:104BD000F2F000EBD070401040427047D0ED4E7ABA
:104BE00090ED0D0AF8EEE77AB8EEC00A87EE800A7B
:104BF0007047D0F83801704710467047D0F83C2114
:104C0000036852F82110D3F814311847D0F8402126
:104C1000036852F82110D3F81831184770477047CD
:104C20007047704730B444680346C2689B685510AB
:104C300004EB6200D20748BF625930BC48BFD3586A
:104C400018470346406830B19A681AB9D86800F02E
:104C5000010070470120704710B5044640F26441DE
:104C600022F0CBFE204610BD10B50446102122F0E4
:104C7000C4FE204610BD0000034B10B5044603607F
:104C800012F062FE204610BD00BA0208064B10B5B5
:104C90000446036012F058FE43F24C51204622F0C5
:104CA000ACFE204610BD00BF00BA020808B590F85F
:104CB0002C300BB1FEF795FD08BD0000002908B5AA
:104CC00003DBB0F91E318B4206DC064B40F2F56186
:104CD000054A064823F008FAD0F8403153F821007D
:104CE00008BD00BF40B6020863B60208B1B60208AC
:104CF000002908B503DBB0F91E318B4206DC064BF8
:104D000040F2E561054A064823F0EEF9D0F83C315F
:104D100053F8210008BD00BF40B602081CB70208C6
:104D2000B1B60208F030884208B505D114F0BEFAD9
:104D3000BDE80840FFF70CBB08BD036870B504462A
:104D40001B6B154698472368204629465B6BBDE8D8
:104D50007040184770B504461D46BDF91060FFF756
:104D6000ECFF2368294620469B6B98472368314611
:104D70002046DB6BBDE87040184700000022C0E908
:104D80000122C0E90322C0E90522C0E907224FF44D
:104D900080728284014A0260704700BF44B80208F2
:104DA00038B504460D462622002123F039FC204662
:104DB000FFF7E4FF064B2046294623602B88E38457
:104DC000FF2384F8283011F0E0FC204638BD00BFF6
:104DD00024CF0208F8B5194B0646018F1B888B4279
:104DE0002AD9174B1B682BB9164B6C21164A17484A
:104DF00023F07AF913F81120154B1B6853F8225051
:104E0000144B186803F062F92B68074628469B6B21
:104E100098472B68044639469B6C2846984714FBF4
:104E200000F42B683946A4B228465B6A98472318D9
:104E30001BB2A6F84630F8BD0023FAE7F487022437
:104E4000F08702246AB70208ACB70208E7B7020885
:104E5000F8870224FC87022437B501AB154615F00C
:104E6000B7FF00282A4601994FEA40144FF020006E
:104E700004DB15F0CCFF204403B030BD15F0C7FFB4
:104E8000201AF9E770B5B0F81A310E46B0F914419E
:104E9000B0F842502344ED1A2DB22C44691ED0E9DB
:104EA0004D32013CD21AF01AFFF7D6FFC0EB441086
:104EB00070BD38B504460D46B4F81631B4F8181173
:104EC0000B44B4F84010C91AD0E94B0209B2121AC7
:104ED000281A0139FFF7C0FFB4F9163100EB43106F
:104EE00038BD00002DE9F04F044691B0002616F0C1
:104EF00039F92746E54B26223146E6634FF6FF7522
:104F000047F8403B384623F08BFB3846FFF736FF27
:104F1000DF4B0EA9A6662364FF23ADF8385004F1D9
:104F2000F00884F8663004F16C0304F59C7904F50C
:104F3000B67B18460393FFF733FF04F198030EA9DD
:104F4000ADF8385018460493FFF72AFF04F1C40364
:104F50000EA9ADF8385018460593FFF721FF4046DB
:104F600011F054FD31462622484623F059FB4846AD
:104F7000FFF704FF4FF0010AC64B31462622C4F862
:104F80006061C4F83831584684F8646184F85CA1E3
:104F9000A4F86651A4F8685184F86A5123F040FBE4
:104FA0005846FFF7EBFEBC4B4FF0FF32A4F8985188
:104FB000C4F86C3104F5DA75B84B6421C4F89C610F
:104FC0002846C4F894314FF47F03A4F8A461C4F8D0
:104FD000A031C4F8A861C4E96B2610F0B3FAB04B55
:104FE00031462846C4F8B43104F53E736322C4F850
:104FF000F03204F59163C4F8F432FFF73FFC04F596
:10500000C362A84B10460692C4F8B4310FF002FFF9
:105010004FF00202A44B84F8442604F5C962C4F898
:10502000183610460792FEF783FDA04BA04A04F203
:105030005C60C4F848362433C4F8546642F6E06134
:10504000C4F8503604F54053C3F83C25994AC3F8D8
:105050004045C3F84425C3F8486512F06BFC4FF493
:10506000F07332463146384600934FF44873FFF7E9
:1050700071FE4FF07F433946201DA3660A270DF0CD
:10508000BDF96FF0220203986FF05701FFF755FE4C
:1050900009230EA90398ADF8383011F076FB039977
:1050A000201D0DF0ABF9324631460498FFF745FE5E
:1050B0000EA90498ADF8387011F067FB0499201D13
:1050C0000DF09CF94FF4C87231460598FFF735FE94
:1050D0000EA90598ADF8387011F057FB0599201D01
:1050E0000DF08CF9404640F29F124121FFF725FE5A
:1050F0000EAA0DA94046ADF834A0ADF838A011F0C5
:105100001CFA03234046A4F82831FFF763FE04F598
:1051100054534FF0FF3241463C33201D4FF00B08F3
:10512000C4F81831C4E94B220DF068F948464FF431
:10513000C8724FF48671FFF700FE0EAA0DA948460B
:10514000ADF83480ADF8388011F0F7F94946201DEC
:105150000DF054F958464FF4D77240F27911FFF729
:10516000ECFD0DF120094FF0FF3259464846A4F8F6
:10517000A061C4F89C2110F0EBFE04F5D47399E80B
:10518000070083E80700454B0EA958464FF0300949
:105190000E934FF00203ADF83C3011F073F959460D
:1051A000201D0DF02BF94FF4867328465C220093E6
:1051B0007F214FF4F6734FF00C0BFFF7CBFD324617
:1051C0005146284610F02AFA32465146284610F039
:1051D00044FA3346324631462846009610F063F9C9
:1051E0003346324631462846009610F093F8314651
:1051F00028466422FFF742FB642231462846FFF727
:10520000CEFB2D4B06992846C4F8543649F2147348
:10521000A4F85836C52384F85A36079BC4F840369C
:105220004FF0020384F8443610F07FF8D4F8E821F8
:105230003C23314628463A265A4310F02DFA3E23A5
:10524000D4F8E8212846D4F8E4115A4310F024FA9F
:105250002846D4E97912724301FA0AF110F01CFAD7
:10526000342628464FF01E0AD4E97912724301EB26
:10527000410110F011FA2C202726D4E9791242437B
:105280008900284610F008FA284617E000BA0208FC
:1052900048CE0208B0CE0208B8CD020888AE020897
:1052A000F0C90208ACB802085CCC020820C90208A8
:1052B000E8B90208254D0008C59714FFD4E9791212
:1052C000724301EB810110F0E7F92B262846D4E95F
:1052D00079127243C1EBC10110F0DEF93523284683
:1052E000D4E979125A43C90010F0D6F94220D4E922
:1052F0007912424301EBC101284610F0CDF9502349
:105300002846D4E979125A4379434E2710F0C4F95C
:105310005C222846D4E979135A4308FB01F14FF087
:10532000230810F0B9F962222846D4E979130BFB5F
:1053300001F15A4310F0B0F95B212846D4E97932E3
:105340004A430E21594310F0A7F92846D4E97912AF
:105350007A43C1EB011110F09FF93D201927D4E9E0
:10536000791242430901284610F096F92D23284668
:10537000D4E979125A4301EB011110F08DF9122191
:105380002846D4E979325943520110F085F9D4F80E
:10539000E431D4F8E821132128467A43594310F028
:1053A0007BF914231720D4E9791242432846594344
:1053B00010F072F91B231520D4E979125A434143A6
:1053C000284610F069F9D4F8E821D4F8E411162041
:1053D00008FB02F24143284610F05EF91720D4E999
:1053E0007912724331264143284610F055F91823AB
:1053F000D4F8E8212846D4F8E4117243594310F058
:105400004BF93320D4E979124243284679432927BE
:1054100010F042F9D4F8E821D4F8E4111A2009FB7D
:1054200002F24143284610F037F9D4F8E821D4F8C5
:10543000E4111B237A432846594310F02DF9D4F880
:10544000E821D4F8E4111C230AFB02F22846594350
:1054500010F022F914232846D4E979125A431D2367
:10546000594310F019F92846D4E979120BFB02F2DE
:105470004FF00D0B0AFB01F14FF0380A10F00CF958
:105480002846D4E9791202EBC202C1EB411110F0B7
:1054900003F9D4F8E821D4F8E41128460BFB02F212
:1054A000490110F0F9F81720D4E97912424301EBD1
:1054B0004111284610F0F0F827212846D4E9793226
:1054C0004A432221594310F0E7F8D4F8E821D4F8F0
:1054D000E41128460AFB02F208FB01F14FF03708FD
:1054E00010F0DAF848232420D4E979124143284601
:1054F0005A4310F0D1F854212846D4E979324A436E
:105500002521594310F0C8F85A222846D4E97913C6
:105510005A432623594310F0BFF853212846D4E9B3
:1055200079324A432821594310F0B6F849232846D6
:10553000D4E97912794335275A4310F0ADF83E216A
:105540002846D4E979324A432A21594310F0A4F875
:105550002B232846D4E9791259437A432C2710F09B
:105560009BF82846D4E97912724379432D2710F02D
:1055700093F832222846D4E979135A4379434727CE
:1055800010F08AF8D4F8E431D4F8E8212E21284626
:1055900008FB02F2594310F07FF82F212846D4E986
:1055A00079325943C2EB821210F076F8D4F8E82130
:1055B000D4F8E41128467A4309FB01F14FF04C0975
:1055C00010F06AF8D4F8E821D4F8E411284609FB71
:1055D00002F27143332610F05FF82846D4E97912BD
:1055E0007A4371433B2610F057F83423D4F8E8216E
:1055F0002846D4F8E4117243594310F04DF82C209A
:10560000D4E97912424335204143284610F044F84A
:1056100036231B20D4E9791259434243284610F01F
:105620003BF82846D4E979120BFB02F24FF05D0BF0
:1056300008FB01F110F030F82846D4E979120AFB92
:1056400001F1920010F028F84FF0390AD4F8E41173
:105650002846D4F8E8210AFB01F110F01DF80620D5
:10566000D4E9791242433A204143284610F014F815
:105670002846D4E979127143120110F00DF81D206B
:10568000D4E9791242433C204143284610F004F803
:105690002B233D20D4E979125A43414328460FF089
:1056A000FBFF36232846D4E979125A433E23594357
:1056B0000FF0F2FF3D232846D4E979125A43C1EB9B
:1056C00081110FF0E9FF2846D4E979120AFB02F2B2
:1056D00001EB81110FF0E0FF332342204FF0610A0C
:1056E000D4E97912414328465A430FF0D5FF2B21C4
:1056F0002846D4E979324A43432159430FF0CCFF7D
:1057000027212846D4E979324A43442159430FF0EE
:10571000C3FF2D212846D4E979324A434621594313
:105720000FF0BAFF2846D4E9791208FB02F24FF0D5
:105730006308794348270FF0AFFF45222846D4E994
:1057400079135A43794353270FF0A6FF2846D4E92B
:1057500079127A43492779434B270FF09DFFD4F8FC
:10576000E431D4F8E8214A21284659430BFB02F2E0
:105770000FF092FFD4F8E821D4F8E411284608FB92
:1057800002F279430FF088FFD4F8E821D4F8E4114D
:1057900028460AFB02F209FB01F14FF059090FF00C
:1057A0007BFFD4F8E431D4F8E8214D212846594351
:1057B00009FB02F20FF070FF4E20D4E979127A4310
:1057C000414328460FF068FF4F212846D4E979323B
:1057D000724359430FF060FF2B232846D4E9791216
:1057E0005A43502359430FF057FF51212846D4E91B
:1057F00079325943C2EB42120FF04EFF182128466E
:10580000D4E979324A43522159430FF045FF17201A
:10581000D4E9791242435320414328460FF03CFF1C
:105820001C232846D4E979125A43542359430FF0D4
:1058300033FF24205521D4E9793242432846594385
:105840000FF02AFF2C212846D4E979324A43562109
:1058500059430FF021FF32212846D4E979324A43D7
:10586000572159430FF018FF33212846D4E97932E4
:105870004A43582159430FF00FFF2F222846D4E9FD
:10588000791309FB01F15A430FF006FF272128463F
:10589000D4E979324A435A2159430FF0FDFE1C21C5
:1058A0002846D4E979324A435B2159430FF0F4FE8C
:1058B00012212846D4E979324A435C2159430FF03A
:1058C000EBFE0B222846D4E979130BFB01F15A4376
:1058D0000FF0E2FE5E212846D4E97932594302EB0B
:1058E000C2020FF0D9FE0E212846D4E979324A438C
:1058F0005F2159430FF0D0FE1A212846D4E97932AE
:105900004A43602159430FF0C7FE2A222846D4E9B2
:1059100079130AFB01F15A430FF0BEFE62212846BB
:10592000D4E97932594372430FF0B6FE2846D4E9E0
:1059300079127A4308FB01F10FF0AEFE201D2946D3
:105940000CF05CFD204611B0BDE8F08F30B585B09D
:105950000368044601816D460146D3F884303C3427
:105960002846984795E8070084E8070005B030BD51
:1059700030B585B00368044641816D460146D3F8D1
:1059800084303C342846984795E8070084E80700AF
:1059900005B030BD0022028042808280C280704704
:1059A00080F836107047036870B504461B6B1546C7
:1059B00098472368204629465B6EBDE8704018472B
:1059C00000207047806C7047704770477047704781
:1059D000704730B444680346C2689B68551004EBB6
:1059E0006200D20748BF625930BC48BFD35818473D
:1059F0000346406830B19A681AB9D86800F00100CF
:105A000070470120704710B504464C2121F0F5FF86
:105A1000204610BD10B50446102121F0EEFF2046AF
:105A200010BD10B504464FF42D7121F0E6FF20465D
:105A300010BD08B5FDF7D5FE08BD0000036870B5C0
:105A40005E6B0446114B8DB21B682BB9104B6C2159
:105A5000104A114822F048FB1049828D0988914272
:105A600003D80F4B6D210B4AF3E713F812200D4BAF
:105A70001B6853F8220003681B6B9847291A3346AA
:105A8000204609B2BDE87040184700BFF0870224E5
:105A90006AB70208ACB70208E7B70208F487022425
:105AA00030BA0208F887022438B500F59C73044622
:105AB0000D46994203D113F0F9FBFEF719FC04F1EE
:105AC00098039D4203D10121E06B02F0B9FD04F57A
:105AD0000B739D4205D1E06B0021BDE8384002F018
