:020000040800F2
:1000000000000824751B0008611A0008631A000824
:10001000651A0008671A0008691A00080000000045
:1000200000000000000000000000000071EC00086B
:100030006B1A00080000000001ED0008B9E4000898
:10004000C51B0008C51B0008C51B0008C51B000810
:10005000C51B0008C51B0008C51B0008C51B000800
:10006000C51B0008C51B0008C51B0008C51B0008F0
:10007000C51B0008C51B0008C51B0008C51B0008E0
:10008000C51B0008C51B0008C51B0008C51B0008D0
:10009000C51B0008C51B0008C51B0008C51B0008C0
:1000A000C51B0008C51B0008C51B0008C51B0008B0
:1000B000C51B0008C51B0008C51B0008C51B0008A0
:1000C000C51B0008C51B0008C51B0008C51B000890
:1000D000C51B0008C51B0008C51B0008C51B000880
:1000E000C51B0008C51B000800000000C51B000858
:1000F000C51B0008C51B0008C51B0008C51B000860
:10010000C51B0008C51B0008C51B0008C51B00084F
:10011000C51B0008C51B00086D1A0008C51B000898
:10012000C51B0008C51B0008C51B0008C51B00082F
:10013000C51B0008C51B0008C51B0008C51B00081F
:10014000C51B0008C51B00080000000000000000DF
:10015000C51B0008C51B0008C51B0008C51B0008FF
:10016000C51B0008C51B0008C51B0008C51B0008EF
:10017000C51B0008C51B0008C51B000800000000C7
:10018000C51B0008C51B0008C51B0008C51B0008CF
:10019000C51B0008C51B0008C51B0008C51B0008BF
:1001A000791A0008C51B0008851A0008C51B00083D
:1001B000C51B0008C51B0008C51B0008C51B00089F
:1001C000C51B0008C51B0008C51B0008C51B00088F
:1001D000C51B0008C51B0008C51B0008C51B00087F
:1001E000C51B0008C51B0008C51B0008C51B00086F
:1001F000C51B0008C51B0008C51B0008C51B00085F
:10020000C51B0008C51B0008C51B0008C51B00084E
:10021000C51B0008C51B0008C51B0008C51B00083E
:10022000C51B0008911A00089D1A0008B91A000899
:10023000C51B0008C51B0008C51B0008C51B00081E
:10024000C51B0008C51B0008C51B0008C51B00080E
:10025000C51B0008C51B0008C51B0008C51B0008FE
:10026000C51B0008C51B0008C51B0008C51B0008EE
:10027000C51B0008C51B0008C51B0008C51B0008DE
:10028000C51B0008C51B0008C51B000800000000B6
:08029000C51B0008C51B000896
:1002A00010B5054C237833B9044B13B10448AFF3B0
:1002B00000800123237010BD4003002400000000D3
:1002C000346E020808B5034B1BB103490348AFF372
:1002D000008008BD0000000044030024346E0208C2
:1002E00001F0FF01102A2BDB10F0070F08D010F8E7
:1002F000013B013A8B422DD010F0070F42B3F6D1EB
:10030000F0B441EA012141EA014122F007047FF003
:1003100000070023F0E80256083C85EA010586EA5A
:10032000010685FA47F5A3FA87F586FA47F6A5FA96
:1003300087F68EB9EED1F0BC01F0FF0102F00702A2
:1003400032B110F8013B013A83EA010313B1F8D14D
:100350000020704701387047002D06BF354603382E
:10036000073815F0010F07D1013015F4807F02BF67
:10037000013015F4C03F0130F0BC0138704700BFB8
:1003800081F0004102E000BF83F0004330B54FEA46
:1003900041044FEA430594EA050F08BF90EA020FB3
:1003A0001FBF54EA000C55EA020C7FEA645C7FEA46
:1003B000655C00F0E2804FEA5454D4EB5555B8BF69
:1003C0006D420CDD2C4480EA020281EA030382EADA
:1003D000000083EA010180EA020281EA0303362D6C
:1003E00088BF30BD11F0004F4FEA01314FF4801C3F
:1003F0004CEA113102D0404261EB410113F0004F51
:100400004FEA03334CEA133302D0524263EB430307
:1004100094EA050F00F0A780A4F10104D5F1200EA5
:100420000DDB02FA0EFC22FA05F2801841F1000100
:1004300003FA0EF2801843FA05F359410EE0A5F1D4
:1004400020050EF1200E012A03FA0EFC28BF4CF005
:10045000020C43FA05F3C01851EBE37101F00045BB
:1004600007D54FF0000EDCF1000C7EEB00006EEBC8
:100470000101B1F5801F1BD3B1F5001F0CD3490852
:100480005FEA30004FEA3C0C04F101044FEA4452A9
:1004900012F5800F80F09A80BCF1004F08BF5FEA30
:1004A000500C50F1000041EB045141EA050130BD10
:1004B0005FEA4C0C404141EB0101013C28BFB1F522
:1004C000801FE9D291F0000F04BF01460020B1FA6D
:1004D00081F308BF2033A3F10B03B3F120020CDA40
:1004E0000C3208DD02F1140CC2F10C0201FA0CF01E
:1004F00021FA02F10CE002F11402D8BFC2F1200C83
:1005000001FA02F120FA0CFCDCBF41EA0C01904038
:10051000E41AA2BF01EB0451294330BD6FEA040481
:100520001F3C1CDA0C340EDC04F11404C4F120026C
:1005300020FA04F001FA02F340EA030021FA04F37E
:1005400045EA030130BDC4F10C04C4F1200220FAD5
:1005500002F001FA04F340EA0300294630BD21FA13
:1005600004F0294630BD94F0000F83F4801306BFD9
:1005700081F480110134013D4EE77FEA645C18BFCD
:100580007FEA655C29D094EA050F08BF90EA020F64
:1005900005D054EA000C04BF1946104630BD91EA5C
:1005A000030F1EBF0021002030BD5FEA545C05D15F
:1005B0004000494128BF41F0004130BD14F580049E
:1005C0003CBF01F5801130BD01F0004545F0FE4112
:1005D00041F470014FF0000030BD7FEA645C1ABF47
:1005E000194610467FEA655C1CBF0B46024650EA7E
:1005F000013406BF52EA033591EA030F41F40021AA
:1006000030BD00BF90F0000F04BF0021704730B52F
:100610004FF4806404F132044FF000054FF0000104
:1006200050E700BF90F0000F04BF0021704730B5C5
:100630004FF4806404F1320410F0004548BF40429A
:100640004FF000013EE700BF42004FEAE2014FEAEF
:1006500031014FEA02701FBF12F07F4393F07F4FCA
:1006600081F06051704732F07F4208BF704793F0CD
:100670007F4F04BF41F40021704730B54FF46074E0
:1006800001F0004521F000411CE700BF50EA0102E3
:1006900008BF704730B54FF000050AE050EA01028C
:1006A00008BF704730B511F0004502D5404261EBFC
:1006B00041014FF4806404F132045FEA915C3FF43D
:1006C000D8AE4FF003025FEADC0C18BF03325FEADA
:1006D000DC0C18BF033202EBDC02C2F1200300FA8B
:1006E00003FC20FA02F001FA03FE40EA0E0021FAB0
:1006F00002F11444BDE600BF014900200FF048BCE0
:100700007124000800224FF40061014809F04ABD3D
:100710000024025801224FF40061014809F042BD53
:1007200000240258F0B5074C2378632B08D803EB5C
:100730004306054F0133BD19B85523706970AA707F
:10074000F0BD00BF5C0300245D0300246FF0FB13C9
:1007500007B5CDE90033FFF7D5FF642308226946CA
:1007600003480DF03BFBFFF7D5FF03B05DF804FB3A
:100770001805002407B50A23C0B28DF800308DF8A3
:1007800001008DF802308DF803008DF804308DF8EB
:1007900005008DF806308DF80700FFF7B3FF6423DE
:1007A0000822694604480DF019FBFFF7B3FFFFF775
:1007B000CDFF03B05DF804FB1805002473B5144C9D
:1007C0000125144E14F8012BEBB201358DF80720EA
:1007D000E2798DF806308DF804308DF805208DF81B
:1007E0000230E27B8DF80030E37D8DF803208DF838
:1007F0000130FFF787FF64230822694630460DF079
:10080000EDFAFFF787FF092DDCD102B070BD00BF04
:1008100089040024180500240328F0B532D841EAE1
:100820000203072B2ED84900174E00250139C9B203
:1008300001F1FF3E374600245FFA85FC60451DD17B
:10084000E3B2994201D0A64518D1032A16D8DFE8B1
:1008500002F0170211130C23013407F8013B082C96
:10086000ECD101350836042DE4D10748BDE8F0404D
:10087000FFF7A4BF3023EFE7C023EDE70023EBE74A
:100880000323E9E7F0BD00BF8904002473B5012408
:100890000025114E8DF800408DF802408DF804407F
:1008A0008DF8064001348DF80150E4B28DF8035004
:1008B0008DF805508DF80750FFF724FF4FF4FA73B9
:1008C0000822694630460DF089FAFFF723FF092C0C
:1008D000E0D102B070BD00BF1805002470B500243F
:1008E0000B4E0C4D3278E3B29A4203D8BDE870400B
:1008F000FFF7CCBF03EB43030134E918E85C8A78C7
:100900004978FFF789FF40F2DC5008F041FCE9E745
:100910005C0300245D03002413B5002A37D00023B4
:100920001C46012A8DF800308DF8014013BF0023CA
:1009300003460C461C46022A8DF8023014BF0023E1
:1009400003468DF803400CBF0C461C46032A8DF865
:10095000043018BF00208DF8054018BF01468DF8FF
:1009600006008DF80710FFF7CDFE642008F010FC9C
:1009700064230822694607480DF030FA04466420D3
:1009800008F006FCFFF7C6FE204602B010BD034685
:100990000C46C6E71805002438B50025ECB2002146
:1009A0000F2001352246FFF7B7FF2246002109201C
:1009B000FFF7B2FF224607210B20FFF7ADFF2246CB
:1009C00001210C20FFF7A8FF224608210A20FFF78B
:1009D000A3FF042DE2D138BDF0B59DB04C2200211B
:1009E00009A825F091FC2022002101A825F08CFC0B
:1009F00004200BF05BFA00230093264BDA6A22F006
:100A00000102DA62DB6A03F001030093224B9A6968
:100A100042F440429A619A6902F440420092009A7C
:100A20009A699104FCD54FF48033032740250522B1
:100A30000224082609A81894CDE909730123CDE9F9
:100A40000C35A023CDE914230023CDE91244CDE9D0
:100A50001644CDE919631B930BF028FD08B172B65B
:100A6000FEE73F232146CDE901374FF48063CDE90E
:100A7000030601A8CDE90555CDE907350CF0B2F81C
:100A8000014608B172B6FEE74FF480220BF0BAFFC0
:100A90001DB0F0BD00040058004802582DE9F04F89
:100AA000BDB01022002101242FA8042525F02CFC24
:100AB00008F0EAFB4FF01041BE4B2FA8ADF8BC4048
:100AC0003294CDE9301308F0FDFB1A232FA88DF8DE
:100AD000BD408DF8C43008F0F5FB02232FA88DF837
:100AE000CA408DF8BD304FF05043309318238DF835
:100AF000C43008F0E7FB03232FA88DF8BD304FF07A
:100B00001053309312238DF8C43000238DF8C83071
:100B100008F0D8FB4FF080532FA88DF8BD503093CC
:100B200011238DF8C43008F0CDFB05232FA88DF8D4
:100B3000C8408DF8BD30A04B30930E238DF8C430E3
:100B400008F0C0FB284608F0ADFB9C4B5A6912F434
:100B5000003211D1BFF34F8FBFF36F8FC3F8502214
:100B6000BFF34F8FBFF36F8F5A6942F400325A615F
:100B7000BFF34F8FBFF36F8F904A536913F48033E5
:100B800023D1C2F88430BFF34F8FD2F8803043F6C0
:100B9000E074C3F3C900C3F34E335B0103EA0406F8
:100BA000014646EA81750139C2F86052F9D2203B0C
:100BB00013F1200FF2D1BFF34F8F536943F4803309
:100BC0005361BFF34F8FBFF36F8F4FF6FF737C4DB1
:100BD0002C6814F4004400F04483013BF8D272B650
:100BE000FEE772B6FEE77748774A8361C0F8209047
:100BF000C0E90026C0E90253C0E904530BF076FABD
:100C000008B172B6FEE740F203132FA98DF8BE902B
:100C1000ADF8BC3007F018FE08B172B6FEE707F079
:100C2000BFFD034608B172B6FEE768484FF4403294
:100C3000674FC0E90253C0E9007208F0D0FB0746D5
:100C400008B172B6FEE702464146624809F0AAFAC8
:100C5000142008F09DFA41462A465E4809F0A2FA9F
:100C60000A2008F095FA2422394619A825F04CFBF1
:100C70001822394613A825F047FB342239462FA8FD
:100C800025F042FB39462C2222A825F03DFBDFF857
:100C900048814FF0A04310A940461295C8E900379B
:100CA0007723C8E90245CDE9103608F0E5FC08B124
:100CB00072B6FEE7CDE91950CDE91B00CDE91D0064
:100CC000CDE91F00219019A9404608F041FF08B165
:100CD00072B6FEE721231C250F2613A9CDE9135375
:100CE0001923CDE917004046CDE9156308F0F3FE5E
:100CF00008B172B6FEE70421374808F0DBFE08B100
:100D000072B6FEE742F21071334809F0AAF80146C4
:100D100008B172B6FEE7304808F04BFC08B172B675
:100D2000FEE74FF400734FF4807A4FF4806B4FF47A
:100D300080524FF480414FF400304FF400244FF0C4
:100D40000208CDE92FA34FF40063CDF8EC80CDE984
:100D500031B34FF40053CDE933234FF48033CDE961
:100D600035134FF480232FA9CDE937034FF080735B
:100D70001948CDE9394308F069FE08B172B6FEE7BB
:100D800005234FF4C877012622A9229029902C969A
:100D9000CDE923371023CDE925308023CDE9270085
:100DA000CDE92A300C4808F0DFFD0146B0B172B63B
:100DB000FEE700BF1B0000030000041000ED00E090
:100DC00000440258A005002400500052E00700240F
:100DD0000010005200180258C4070024804808F090
:100DE000B2FD044608B172B6FEE73422014622A8DD
:100DF0007C4D25F089FADFF838E24FF00043C5F862
:100E0000208040F293192846AC8685F83640C5E923
:100E100000E34FF08043C5E90648C5E902344FF4CA
:100E2000C9784FF4F173C5E9098340F2E313C5E9CA
:100E30000444C5E90B930AF021FD024608B172B6DD
:100E4000FEE7FF214FF4C06C4FF4F0732490ADF82F
:100E5000B8008DF8BA002D93CDE927100721CDE910
:100E600029C14FF05041CDE92207CDE92B17284683
:100E700022A9CDE925360AF0B6FD044608B172B6BE
:100E8000FEE72A685648936923F00103936108F04E
:100E9000C5FE5549554B5648CB60564B0C804B60B0
:100EA000554B8B6007F074FA32462146504806F0E5
:100EB000DFFE2823152221464948009408F0E1FE70
:100EC0002FA947483994CDE92F44CDE93144CDE9E4
:100ED0003344CDE93544CDE9374408F0B7FD224627
:100EE0004FF4487128460AF0ABFD2A6843489369DD
:100EF000848043F001039361414B06620360C0E9C3
:100F0000054408F00BFA08B172B6FEE73D483E4BC7
:100F1000036009F0A1FE08B172B6FEE73B484FF44A
:100F200080033B4A4FF400314FF08064C0E9002356
:100F300007234FF04052C0E90213C0E906420023E4
:100F40004FF08042C0E90433C0E90833C0E90A33F6
:100F5000C0E90D23C0E90F33C0E91133C0E91333F1
:100F6000C0E915330CF096FE044608B172B6FEE7F0
:100F700000F02AFE00F027FE01224FF40061254810
:100F800009F010F9642008F003F9FFF705FD32209D
:100F900008F0FEF84FF4FA7008F0FAF8FFF776FC64
:100FA0004FF4FA7008F0F4F8FFF7F6FC4FF4FA701B
:100FB00008F0EEF8FFF76AFC0DF08CFA164A2146AD
:100FC00016480DF0B3FA164B164A2146186016481B
:100FD0000DF0ACFA154B18600DF08EFAFEE700BF6D
:100FE000C4070024EC050024AC0400247187000829
:100FF000BC04002471210008A9210008480800242D
:10100000004C02586C0700240030005218050024E0
:101010000050014000240258CC6E0208D71B000883
:10102000E0040024A86E0208113D0008DC0400243E
:1010300000100050142200212FA8012525F064F98A
:10104000D4F8E030002241F6083143F4807396482A
:101050004FF0000B0326C4F8E0300227D4F8E0304C
:101060004FF480794FF008084FF4006A03F480735E
:101070000593059BD4F8E03043F00203C4F8E03058
:10108000D4F8E03003F002030693069BD4F8E03076
:1010900043F04003C4F8E030D4F8E03003F04003FC
:1010A0000793079BD4F8E03043F01003C4F8E03016
:1010B000D4F8E03003F010030893089BD4F8E03034
:1010C00043F08003C4F8E030D4F8E03003F080034C
:1010D0000993099BD4F8E03043F00403C4F8E030EE
:1010E000D4F8E03003F004030A930A9BD4F8E0300C
:1010F00043F40073C4F8E030D4F8E03003F4007334
:101100000B930B9BD4F8E03043F00803C4F8E030B5
:10111000D4F8E03003F008030C930C9BD4F8E030D3
:1011200043F00103C4F8E030D4F8E03003F00103E9
:101130000D930D9BD4F8E03043F02003C4F8E03069
:10114000D4F8E03003F020030E930E9BD4F8E03087
:1011500043F48063C4F8E030D4F8E03003F48063F3
:101160000F930F9B09F01EF8002208214F4809F049
:1011700019F800224FF480714D4809F013F841F23C
:1011800008332FA94848CDE92F35CDE931B608F00D
:101190007FFE2FA94748CDF8CCB0CDE92F97CDE9F8
:1011A00031BB08F075FE2FA94048CDE92F85CDE968
:1011B000315608F06DFE2FA93D48CDE92F95CDE9B8
:1011C00031B608F065FE2FA937484FF04009CDE948
:1011D0002FA5CDE931BB08F05BFED4F8D4305A46D8
:1011E00005212B437A20C4F8D430D4F8D430042419
:1011F0002B400493049B07F0F5FF7A2008F024F8B5
:101200002D4A2E482FA9136823F0010313602C4B9D
:101210002F978560C0E900352023C0E903434FF4D0
:10122000C073C0E905934FF48053C0E9093B07231D
:10123000CDE93477C0E907BACDE93034CDE93236AB
:101240000CF064FC074600287FF4CBAC07F0B6FC3A
:10125000384607F001FD034600283FF4C4AC72B6DF
:10126000FEE707F055FFFFF7B7FBD5F8E030204663
:1012700043F00073C5F8E030D5F8E03003F00073B8
:101280000393039B08F09CFF2146204608F0A6FF2D
:101290000C4C4FF6FF73226812043FF5CBAE013BB6
:1012A000F9D272B6FEE700BF0024025800180258B7
:1012B000001402580000025800400052E4040024C8
:1012C00040410052004402580268034B9A4201D147
:1012D00007F04CBF704700BF0010004072B6FEE739
:1012E0000A4B82B00F216FF00100D3F8F42042F0D6
:1012F0000202C3F8F4200022D3F8F43003F0020312
:101300000193019B02B007F06DBF00BF004402587B
:10131000026882B0094B9A420DD1A3F50063D3F85D
:10132000E02042F40022C3F8E020D3F8E03003F4D8
:1013300000230193019B02B0704700BF004C02588C
:101340000F4B07B502689A4217D10E4B07215A205E
:10135000D3F8D42042F01002C3F8D4200022D3F8EE
:10136000D43003F010030193019B07F03BFF5A2098
:1013700003B05DF804EB07F067BF03B05DF804FB52
:10138000001000520044025810B5BAB004461422AE
:10139000002103A824F0B8FFC822002108A824F0E7
:1013A000B3FF2368B3F1A04F38D14FF08062002320
:1013B00008A8CDE908230BF09BFE08B1FFF78EFFCC
:1013C000174B002403A91748D3F8E42042F0100279
:1013D000C3F8E420D3F8E42002F010020192019A4D
:1013E000D3F8E02042F40072C3F8E0200422D3F8DE
:1013F000E03003F400730293029B0223CDE9032340
:101400000D23CDE90544079308F042FD7B202246D9
:10141000072107F0E7FE7B2007F016FF3AB010BD6A
:10142000004402580024025837B53C4B0546026878
:101430009A4270D13A4B02213A4C4FF0007ED3F8D9
:10144000D420DFF8ECC0204642F02002C3F8D420BC
:101450008022D3F8D43003F020030193019B1123A1
:10146000C4E900C30023C4E90232C4E907322022E0
:101470002361C4E90513C4E909E24FF4A0414FF424
:101480000032C4E90D33C4E90B120AF044FB08B181
:10149000FFF724FF0022234811460AF0CAFB08B1D7
:1014A000FFF71CFF2C6313231F4A082125644FF408
:1014B000A0401E4CC4E900230023C022C4E902322C
:1014C00020222362C4E906124FF00071C4E9091218
:1014D0004FF42032C4E90B022046C4E90433C4E9C6
:1014E0000D330AF018FB08B1FFF7F8FE00220F4891
:1014F00011460AF09EFB08B1FFF7F0FE6C63002274
:1015000005217920256407F06DFE792003B0BDE840
:10151000304007F099BE03B030BD00BF003000522C
:101520000044025800070024C00100529406002421
:101530000002005210B5B4B00446C822002102A82F
:1015400024F0E2FE2268184B9A422BD14FF0005251
:101550000023152102A8CDE90223A1230522CDE90C
:101560000C230223CDE90E334FF40063CDE91013B1
:101570000BF0BEFD08B1FFF7B1FE0C4B5820072160
:10158000D3F8E42042F00802C3F8E4200022D3F8A4
:10159000E43003F008030193019B07F023FE582079
:1015A00007F052FE34B010BD001000500044025845
:1015B000F0B5BFB004461422002107A824F0A4FE11
:1015C000C82200210CA824F09FFE2268534B9A42A7
:1015D00040F0A1804FF0007200230CA8CDE90C234D
:1015E0000BF086FD08B1FFF779FE4D4B0225002474
:1015F0000926D3F8D42007A94A480A2742F4804292
:10160000C3F8D420D3F8D42002F480420192019A86
:10161000D3F8E02042F04002C3F8E020D3F8E02005
:1016200002F040020292029AD3F8E02042F0200237
:10163000C3F8E020D3F8E02002F020020392039ADE
:10164000D3F8E02042F08002C3F8E020D3F8E02095
:1016500002F080020492049AD3F8E02042F00202E1
:10166000C3F8E020D3F8E02002F002020592059AC8
:10167000D3F8E02042F00802C3F8E020D3F8E030CD
:1016800003F008030693069B4FF48443CDE9073526
:10169000CDE909440B9608F0FBFB402307A921483C
:1016A0000B97CDE90735CDE9094408F0F1FBC023DC
:1016B00007A91D480B96CDE90735CDE9094408F087
:1016C000E7FB4FF4007307A917480B97CDE90735DF
:1016D000CDE9094408F0DCFB0C2307A913480B965D
:1016E000CDE90735CDE9094408F0D2FB042307A969
:1016F0000F480B96CDE90735CDE9094408F0C8FB42
:101700004FF4006307A90B480B96CDE90735CDE9E7
:10171000094408F0BDFB3FB0F0BD00BF00500052CF
:10172000004402580018025800140258001C0258C5
:1017300000040258000C025870B5BAB004461422D6
:10174000002103A824F0E0FDC822002108A824F00D
:10175000DBFD2268264B9A4247D14FF4005200230A
:1017600008A8CDE908230BF0C3FC08B1FFF7B6FDCC
:10177000204B022600240525D3F8F02003A91E489B
:1017800042F48012C3F8F020D3F8F02002F4801263
:101790000092009AD3F8E02042F48062C3F8E0207F
:1017A000D3F8E02002F480620192019AD3F8E0209D
:1017B00042F40072C3F8E020D3F8E030079503F458
:1017C00000730293029B0123CDE90544CDE9033662
:1017D00008F05EFB4FF4806303A908480795CDE944
:1017E0000336CDE9054408F053FB3AB070BD00BFA5
:1017F00000500140004402580028025800240258BA
:10180000F0B5B9B00021142201A824F07DFD3F4BB2
:101810001968002977D1012208A81A60C02224F093
:1018200073FD4FF08072002306A8CDE906230BF06C
:101830005FFC08B1FFF752FD354B02270026032558
:10184000D3F8D4200C2401A9324842F48052C3F8C2
:10185000D420D3F8D430059403F480530093009B34
:1018600040F2FF63CDE90365CDE9013708F010FBD5
:10187000602301A928480594CDE90137CDE9036526
:1018800008F006FB4FF6837301A924480594CDE9BF
:101890000137CDE9036508F0FBFA4FF47F4301A956
:1018A0001F480594CDE90137CDE9036508F0F0FA4A
:1018B00048F2331301A91B480594CDE90137CDE95E
:1018C000036508F0E5FA4CF2037301A91648059484
:1018D000CDE90137CDE9036508F0DAFA4FF63F03A9
:1018E00001A912480594CDE90137CDE9036508F057
:1018F000CFFA012301A90E480594CDE90137CDE9BE
:10190000036508F0C5FA39B0F0BD00BF70080024C7
:1019100000440258002002580004025800100258E7
:10192000001C025800180258000C025800140258FB
:10193000000802581A4B1A6810B582BB194A0124D4
:1019400040F2FF6118481C60D2F8D43023F4805371
:10195000C2F8D43008F084FB6021144808F080FB02
:101960004FF68371124808F07BFB4FF47F4111481A
:1019700008F076FB48F233110F4808F071FB4CF287
:1019800003710E4808F06CFB4FF63F010C4808F05D
:1019900067FB21460B48BDE8104008F061BB10BD55
:1019A0006C08002400440258002002580004025829
:1019B00000100258001C025800180258000C02586F
:1019C00000140258000802580F2810B504468AB0C7
:1019D00002D901200AB010BD01460022362007F0CE
:1019E00001FC362007F030FC184B694602A81C6049
:1019F000174BD3F8E82042F01002C3F8E820D3F8E0
:101A0000E83003F010030193019B0BF057FA079B9A
:101A1000C3B90BF02FFA0F4C0F4B236040F2E733A2
:101A2000E3600E4BB0FBF3F001380023606020460A
:101A30002361A3600CF074FC0028CAD120460CF08E
:101A400023FBC7E70BF016FA4000E4E77800002418
:101A500000440258740800240010004040420F0067
:101A6000FEE7FEE7FEE7FEE7FEE7704701480CF001
:101A70004DBB00BF74080024014809F057BF00BFE8
:101A8000EC050024014807F0E9BC00BFE007002492
:101A9000014809F019BE00BF6C070024044808B5CE
:101AA0000AF04CF90348BDE808400AF047B900BF06
:101AB0009406002400070024014807F0D2BE00BFAE
:101AC000C40700240120704708B524F0D1FC162378
:101AD00003604FF0FF3008BD08B524F0C9FC1623A1
:101AE0000360FEE770B50D4614460E46731B9C421C
:101AF00001DC204670BDAFF3008006F8010BF5E76E
:101B000070B50D4614460E46731B9C4201DC204600
:101B100070BD16F8010BAFF30080F5E74FF0FF3012
:101B200070474FF4005300204B607047012070470E
:101B3000002070470B4A0346116810B509B90A49DD
:101B40001160106809490A4C0344091B8B4206D9ED
:101B500024F08EFC0C2303604FF0FF3010BD1360A7
:101B6000FCE700BFC00800246872022400000824BB
:101B700000100000DFF834D007F05AFA0C480D4985
:101B80000D4A002302E0D458C4500433C4188C42D8
:101B9000F9D30A4A0A4C002301E013600432A2423E
:101BA000FBD324F06BFCFEF779FF7047000008249C
:101BB0000000002440010024C4B7020840030024B0
:101BC00068720224FEE7704708B501F017FDBDE812
:101BD000084001F099BC01F013BD406870474160B6
:101BE0007047521A02EB5302B2FBF3F07047000049
:101BF000024BC0681B685B6A58437047C4080024E6
:101C00007047000037B51E4A4FF0804105464FF03F
:101C1000FF30D2F8E83043F00103C2F8E830D2F8E0
:101C2000E83003F001030193019B164B196000217A
:101C3000D86019619960596001215961D3691022F6
:101C400003F0700392FAA2F2B2FA82F2D3400E4A83
:101C5000D35C83B90BF0ECF804460AF021FFB0FB2B
:101C6000F4F0E86007480CF05BFB064803B0BDE801
:101C700030400CF0CFB90BF0FDF84400EDE700BFA9
:101C800000440258C4080024A89A020810B504466B
:101C9000102123F024FD204610BD38B5036804460A
:101CA0001B6931B18568984763685B1B03446360B7
:101CB00038BD9847A060FBE770470000F8B50A4BB5
:101CC0000F4616461D7815B900252846F8BD074C65
:101CD0000020214607F050F92368002BF4D06368F8
:101CE0003B60A3683360F0E720090024100900245A
:101CF00010B50446042123F0F2FC204610BD00007C
:101D000008B50E4B4FF44872002019684FF4F07379
:101D1000C1E900230C23C1E9023007F09DF8084B0C
:101D200010B901221A7008BD1B78002BFBD1054B9E
:101D30002E21054A054824F04BF800BF1C09002459
:101D400020090024186F02082B6F0208556F020843
:101D5000032825D8DFE800F0020B131B114B0821E4
:101D60001A68B2FA82F252090F4808F01BBA0D4BFA
:101D70004FF480715A68B2FA82F25209F4E7094BC3
:101D80004FF400719A68B2FA82F25209ECE7054BFF
:101D90004FF480710548DA68B2FA82F25209E4E73A
:101DA000704700BF24090024002402580014025880
:101DB000032825D8DFE800F0020B131B114B082184
:101DC0001A68003A18BF01220F4808F0EBB90D4B12
:101DD0004FF480715A68003A18BF0122F4E7094BAA
:101DE0004FF400719A68003A18BF0122ECE7054BE6
:101DF0004FF480710548DA68003A18BF0122E4E721
:101E0000704700BF2409002400240258001402581F
:101E1000032811D8DFE800F00206090C0821074862
:101E200008F0C5B94FF48071F9E74FF40071F6E797
:101E30004FF480710248F3E7704700BF0024025856
:101E40000014025808B5032815D8DFE800F0020A8C
:101E50000D100821094808F09FF9431E58425841C7
:101E600008BD4FF48071F5E74FF40071F2E74FF4CD
:101E700080710348EFE70020EFE700BF002402581D
:101E80000014025870B5084D00240126E0B2FFF797
:101E9000D9FF18B12B68012B18BF2E60013404350F
:101EA000052CF3D170BD00BF24090024012380F864
:101EB000781080F87930704700207047416400390D
:101EC000024B18BF01211970704700BF47650224FB
:101ED00000207047836B0BB10846184770474FF6D8
:101EE000FF707047406803689B691847014B18688A
:101EF000704700BF48090024704701F07EBC01F024
:101F00000DBC01F0DFBD01F0D1BD000010B50446ED
:101F100001F094FD94F84B3013B1024B01221A707A
:101F200010BD00BF0C00002401F000BC10B5044639
:101F30000FF0D2FF23682046D3F8AC30BDE8104044
:101F4000184710B504460FF05DFB60680368BDE8F4
:101F500010401B6918470FF02BBA10B504467C21BE
:101F600023F0BDFB204610BD024B00221A700FF07B
:101F70005BBA00BF0C00002438B50446064D01F0E2
:101F8000FDFB0023284684F84A30FFF73BFE01237F
:101F9000256184F8703038BD380900240368044690
:101FA00007B5D3F880309847236820469B6F984741
:101FB00000F05CFF236820461B6F9847002129230F
:101FC00015220548009107F05CFE00F04FFF2368E2
:101FD00020461B6F9847F8E7C407002490F8341098
:101FE0000D4B10B590F878401A788C4209D03AB968
:101FF0000A490B4A08881488108001220C801A7044
:1020000010BD002AFCD0064A0449148808880C80B8
:1020100010800022F3E700BF406502243E650224E1
:102020003C65022408B5094B1B888B4203D8084B3A
:102030001B88934205D9074B9E21074A074823F086
:10204000C7FE074B1980074B1A8008BD3C65022468
:102050003E650224C06F0208237002086670020801
:102060004265022444650224034690F87A0018B1C0
:10207000586803681B6818477047000070B50D4624
:1020800019460B4B1D6035B90A4B40F2D2210A4A62
:102090000A4823F09DFEC0E90F52003A084B18BFD2
:1020A00001221A700368BDE87040D3F88C301847DD
:1020B00048090024B9700208F1700208667002082D
:1020C00046650224C0E90112C3604FF48072002308
:1020D000C0E912231D4A038580F82A30C3620386B3
:1020E00080F85830436680F87030436770B5C0E9B7
:1020F0001A23BDF81050164ABDF814602035C0E907
:102100000433C0E90633C0E90833C0E90E33C0E93F
:102110001033C0E91433C0E917338267ADB20D4AFA
:10212000B54210600C4A15800C4A158028BF002566
:102130000B4A38BF012516800A4A80F834501680B1
:10214000094A1370094B036070BD00BF0100000114
:1021500000000101486502243C6502244265022416
:102160003E65022444650224406502244871020849
:10217000012B13B50ED8D35C152200930B460146F4
:10218000084807F07EFD18B16FF0070002B010BDDF
:102190000020FBE7CDE9001201463922014807F093
:1021A00081FDF0E7C40700241FB5CDE90112062127
:1021B00000910146054807F0D5FD002814BF6FF0D7
:1021C0000700002005B05DF804FB00BFC407002431
:1021D0001FB54FF201430B4C39220021ADF80C30F2
:1021E00003AB2046019344230093022307F05AFDDA
:1021F0000021352315222046009107F042FD04B04E
:1022000010BD00BFC407002408B5FFF7E1FF0C4B69
:1022100002221B68C3F810240122C3F81024D3F84B
:10222000082442F00102C3F80824D3F8082442F03D
:102230000202C3F808240322024B5A6308BD00BF00
:10224000C407002400100050074B07B5197839B9AE
:10225000012206481A7029231522009107F011FD6A
:1022600003B05DF804FB00BF34090024C407002458
:10227000064B07B501932A2339220021009304233A
:10228000034807F00FFD03B05DF804FB08000024CD
:10229000C4070024064B07B501932A2339220021E5
:1022A00000930423034807F0FDFC03B05DF804FB32
:1022B00004000024C407002438B5144D044600204F
:1022C000FFF746FD2A6892F86A30013382F86A30D7
:1022D00000F0C0FD0E4B2A6819781B7882F84A106E
:1022E00073B10C4D2B7803F0FF024BB90A4B1A6007
:1022F000FFF7BEFF204607F0B4FC01232B7038BD6A
:102300000020BDE83840FFF753BD00BF48650224F8
:102310000C000024500900244C0900242DE9F0434E
:10232000484E85B004463378002B00F08880DFF8F3
:102330003891DFF83881D9F80050434F002D3ED155
:102340000120424E06F024FF23680095D3F80424B0
:10235000386822F0080200F59660C3F80424D3F828
:10236000042402F008020092009AD8F80020C2F873
:10237000AC0037480661374E46613748C2F88800DE
:102380003648C2F8B000516A41F00101516201952E
:10239000D3F8042442F00802C3F80424D3F8043428
:1023A00003F008030193019BFFF774FF012320460C
:1023B000C9F8003005B0BDE8F04307F052BC03682F
:1023C000002538680295D3F80424254C22F0080231
:1023D000C3F80424D3F8042402F008020292029AFB
:1023E000D8F80020C2F8AC001948046104F10114C7
:1023F00044611948C2F888001848C2F8B00028465D
:10240000516A41F0010151620395D3F8042442F06E
:102410000802C3F80424D3F8043403F00803039338
:10242000039BFFF7C5FCFFF70FFF0E4B35701868D5
:1024300028B103681B6A05B0BDE8F043184705B032
:10244000BDE8F0835009002448090024E201B201EC
:1024500000100050E301920103009201B304C0098F
:10246000E2019201486502244C090024EC05002495
:10247000014608B5034B186801B101210FF046FD74
:10248000012008BD48650224034B00225A609A606F
:10249000024A1A60704700BF38090024F86E02082B
:1024A0004069704790F840007047036B23B9C06AD9
:1024B000003818BF012070470120704780687047BE
:1024C0007047043010B50C460FC884E80F0010BDEB
:1024D0007047000008B5034A4FF4E271024B03480D
:1024E00023F076FC18720208AB950208737202089A
:1024F00010B50446482123F0F2F8204610BD000034
:1025000000220E4B10B5114604460360C26380F8EA
:102510004020C0E90522C0E90722C0E90922C0E93C
:102520000B22C0E90D22C0E90322C0E901220120EB
:102530000CF0BAF8024B1860204610BDA8740208CF
:102540007009002410B40C4611461A46036B3BB1C7
:10255000C36B406BE41A20445DF8044B23F0DCBEEF
:10256000C06AF8E7036B10B573B1C36B426BC91A4D
:102570005318525C98785C78000440EA04201043B9
:10258000DB7840EA036010BDC26A5318525C597888
:102590009878000440EA0120F1E7036B43B1C36B74
:1025A000C91A436B5A18585C527840EA02207047A7
:1025B000C36A5A18585C537840EA032070470000F9
:1025C00070B50446006B0D461646D8B1A36B934216
:1025D00008D209230D4A9E210D4884F840300D4B46
:1025E00023F0F6FB0368DB689847206B3246616B8B
:1025F00003681B69984710B90D2384F84030606B5D
:10260000E56370BDE06A0844FBE700BFE1720208C1
:1026100073720208CE7202082DE9F843436904463A
:102620002BB9224BE421224A224823F0D1FB082275
:102630008169FFF7C5FFA16943F2300646F26437AE
:1026400004312046FFF78EFFA3691844A36A00F106
:1026500008029A4206D3012300206361236AA36122
:10266000BDE8F883636900F10901082220460133BF
:1026700021F001016361A161FFF7A2FFD4F8189076
:1026800020464946FFF789FF09F1020180462046AE
:10269000FFF783FF09F1040105462046FFF762FFBB
:1026A000B045D1D1BD42CFD10120D9E72373020873
:1026B0006C730208737202080129036838BF012194
:1026C000DB6A70B50D4604469847A84204D22368D9
:1026D0002046DB6A984705466B1EE66910222046B5
:1026E00006EB031606F10801FFF76AFF06F1100179
:1026F0002046FFF737FF236A043B0344C4E9055330
:1027000070BD0000002148222DE9F041044681619E
:1027100080F84010FFF754FFA6690423634A31464E
:102720002046FFF70FFF48B10323614A4FF496712B
:1027300084F840305F4B604823F04AFB06F1080103
:1027400004235E4A2046A161FFF7FCFE38B1042352
:10275000574A4FF49A7184F84030594BEBE706F131
:102760000C010423574A2046A161FFF7EBFE074600
:1027700038B105234E4A40F23B1184F84030524BA9
:10278000D9E706F110012046FFF7ECFE054620B917
:102790004E4B40F24111464ACDE706F1140804239E
:1027A0004B4A20464146FFF7CDFE002849D006237C
:1027B00084F840300423474A06F118012046FFF709
:1027C000C1FE00283FD0072384F840304544424FE3
:1027D0000C2220462946FFF7F3FE05F108060423E4
:1027E0003A4620463146FFF7ADFE94F840300028C7
:1027F00048D0002B48D1A36AAB4249D805F10C035D
:1028000004352046A3612946FFF7ACFE3044294633
:1028100060622046FFF7A6FE0644042220463146A9
:10282000FFF7CEFE04232D4A31462046FFF78AFEED
:10283000002838D10123E6616361A3692362BDE802
:10284000F0810127B6E7002FC0D006F12001204615
:10285000FFF788FE4FF47A7306F13001B0FBF3F016
:1028600060602046FFF77EFE06F14001A060204632
:10287000FFF778FE06F14401E0602046FFF772FEA4
:102880002061A3E7002BB9D00A2384F84030D6E7B3
:10289000291D2046FFF766FE85190C222046294691
:1028A000FFF78EFE99E70B23EFE700BF9F73020847
:1028B000BD730208A473020873720208EA73020867
:1028C000EF730208077402080C74020822740208ED
:1028D0002E74020833740208387402083D7402082A
:1028E000C0E90A2100220263FFF70CBF10B50023E4
:1028F00004460846E3620B6821639B689847A06220
:102900002046BDE81040FFF7FDBE000037B5144C6F
:10291000144D23600024144B1C60144B1C60144B9A
:102920002C601C60134B1960134B1A60134B1C6016
:10293000134B2A684FF4C0751C701C74C3E9024421
:10294000C3E9064403EB02130E4AD2686A430092BD
:102950004FF450425B6808F02DFB204603B030BDB9
:102960009C9F0024789F0024889F00246C090024E9
:10297000989F0024909F0024949F002474090024B1
:1029800010000024540900244B68012B15D1CB689A
:102990001A071EBF23F00F031033CB608B68180794
:1029A0001EBF23F00F0310338B60CB688A681B09AE
:1029B000120953430E4A13607047022B0ED1CB68A5
:1029C0001A0703D023F00F031033CB608B685A072C
:1029D0001EBF23F0070308338B607047002BFCD128
:1029E000CB685807F2D023F007030833EDE700BFA8
:1029F000809F00240B4A13680B4430B413600A4ACA
:102A0000126893420CD2094CD21A2568B2F5504F85
:102A1000294428BF4FF45042216030BC08F02CBB41
:102A200030BC7047989F0024949F0024909F0024FE
:102A3000F8B5204C0121204D064623681F4F1B018D
:102A4000E954236805EB03139A601D4B196822684B
:102A500005EB0212D1601A68F9680A441A6023680B
:102A6000013323602368012B01D9002323602368ED
:102A70001B01EB5C33B10221304608F0CFFA114B59
:102A800001221A6022683046FB6805EB02154FF4FC
:102A9000C07269685A4308F0F2FA0B4B1B681A7A45
:102AA0003AB99B7A2BB9094B1868BDE8F8400BF08E
:102AB00071BEF8BD789F0024100000245409002442
:102AC00074090024889F00247C9F0024700900243E
:102AD00072B6FEE7014B01221A6070478C9F0024FA
:102AE00038B5164D04462B6813B1154B1B681BBB3C
:102AF000144B1868037A63B9134B144A1B681B0103
:102B0000D35C012B05D10E4B1B6813B903681B69FD
:102B100098470F4A1368012B0CD10E4B0B491B68C9
:102B20001B01CB5C33B92B6823B90221204613600B
:102B300008F0D3FC022038BD0120FCE78C9F002464
:102B4000680900247C9F00246C09002410000024E4
:102B5000889F0024789F002470B50546002A35D050
:102B6000002B33D01A4803240461EC6826074FF485
:102B7000166618BF24F00F04466018BF10340460B6
:102B80002409C4602C6914F00F0418BFC4F11004A8
:102B900084601048FFF7BAFE0F4C6A6C0F4B0D4D66
:102BA0001A602846FFF79CFF20602368022B05D19E
:102BB0000B4B4FF0FF3118680BF0C0FD2368012B61
:102BC000EFD10023074A1360074A136070BD00BFAE
:102BD000540900246C070024849F00247C9F002457
:102BE000700900248C9F0024680900242DE9F04F0F
:102BF0009946436985B004460F4690462BB9294B48
:102C0000B021294A294823F0E3F808228169FFF717
:102C1000D7FCA66920463146FFF7BFFCB11C8346AE
:102C20002046FFF7BAFC311D82462046FFF79AFC8A
:102C300006F10801A36A054642189A4226D243F2D9
:102C400030039B4517D146F264339A4513D190B1B6
:102C50000246A1612046FFF7B3FC0E9B01462A46BF
:102C60002046CDF80080CDE901933B46FFF774FF85
:102C7000636901336361A3692B4405B908330133E8
:102C8000626A23F001039342A36109D10123012069
:102C90006361236AA36180F0010005B0BDE8F08F95
:102CA0000020F8E7237302084274020873720208D6
:102CB000F8B50446816916460822FFF781FCA7692A
:102CC0002046391DFFF74EFC07F108010246054674
:102CD0002046FFF775FC01466EB12A46074C084DA9
:102CE00033460748FFF712FE2846FFF7F9FE20603B
:102CF0002368002BF8D00120F8BD00BF849F00247A
:102D00006C0700241B4AD0F80CC0F0B54FEA0C1336
:102D100014685568184E194FB3FBF4F104FB1133D6
:102D20004D43116901FB03F401232D0173633F68D7
:102D3000D368FF1A1905BC4517D39268C2F1100277
:102D40000A4372640E4AC3F1320311681B010A4A36
:102D500021442944D163136400231361094BD361D7
:102D60004368D360084B1360F0BD41F010017164FB
:102D7000E8E700BF5409002400100052809F00249F
:102D80009C9F00240B0009FF012301000C4B002233
:102D9000027019688260013119601968012900D92F
:102DA0001A60084B084A1B68D2689B1AC2689A428C
:102DB00002D3064B01221A60054B18680BF0EABCDF
:102DC0006C090024809F0024540900246809002411
:102DD000700900240121002208B508460BF064FCAC
:102DE0000A4B186028B90A4B28210A4A0A4822F0DF
:102DF000EFFF0022042101200BF0F5FC074B1860C7
:102E000018B9074B2C21034AF0E708BDA49F002402
:102E1000E47402082D7502085C750208A09F002466
:102E2000AD750208024B4FF0FF3118680BF086BCFD
:102E3000A49F0024014B18680BF0ACBCA49F002495
:102E4000024B002118680BF079BC00BFA49F00243E
:102E5000FFF7F0BF0023034803491A4600680BF050
:102E6000FDBC00BFA09F00243000002413B5002348
:102E7000074C01A91A4620680BF021FD4FF0FF33E3
:102E8000002201A920680BF01AFD02B010BD00BF9E
:102E9000A09F002403685B6C184701207047FEE781
:102EA00040F2EF307047000010B504464FF0FF319C
:102EB000D0F8A40D0BF0B6FB606803681B68984758
:102EC00078B9637A6BB1237A5BB984F8A03D204668
:102ED00023685B6A9847D4F8A40DBDE810400BF056
:102EE000C4BB0B490B4A0B681B01D35C012BF2D10D
:102EF000207A0028EFD1A07A0028ECD1086884F865
:102F0000A03D02EB00102372FFF7FCFEE3E700BFD9
:102F10006C09002410000024054B4FF08062036010
:102F2000044BC3F88820BFF34F8FBFF36F8F7047F8
:102F30005077020800E100E010B5044640F6A851C1
:102F4000FFF7EAFF204622F0CAFB204610BD000032
:102F5000104B82B0D3F8D42042F01002C3F8D42032
:102F6000D3F8D42002F010020192019ADA6F42F0F5
:102F70001002DA67DA6F22F01002DA67064B074AAE
:102F80001A62074A5A62074B4FF080629A6002B099
:102F9000704700BF00440258E0070024ED310008EC
:102FA0009F2E000800E100E008B50A2809D8DFE8F4
:102FB00000F006100E08080808101010100002207B
:102FC00008BD054B9121054A054822F001FF00206C
:102FD000F6E70120F4E700BFEF7502080A76020861
:102FE0005576020838B50C46887FFFF7DDFF124B97
:102FF000A58AE28A586342EA054221695A64628BD3
:10300000D963521B1A642568082D0ED19A611A6182
:1030100058620A4A207F42EA0062DA61E2681A6274
:10302000074A5961D9601A6038BD0022D8611A6117
:10303000E2689A63034AF6E70010005209000100B3
:10304000012302000123030008B50B280BD8DFE899
:1030500000F00612100A0A0A0A08080808080220E6
:1030600008BD0520FCE7054B7021054A054822F004
:10307000AFFE0020F4E70120F2E700BFEF75020881
:10308000A4760208557602082DE9F8434F7F894659
:103090003846FFF7D9FF99F81E5080462846FFF7BB
:1030A000D3FF06462846FFF77FFFB9F81410B9F89A
:1030B0001A40B9F81820454B641A521A1C649C61D6
:1030C0001A61B9F81620586342EA0142D9F8101083
:1030D0005A64D9F80420D963DA60D9F8004099F825
:1030E0001C20802C22D00FD8202C66D0402C64D0FD
:1030F000042C5CD048EA0260344BAF4240F400300C
:10310000D86160D0324A3FE0B4F5807F04D0B4F596
:10311000007FEFD12F4800E02F4840EA0262DA61D9
:10312000D9F80C201A625E6259612CE048EA02600C
:10313000D9F8084040F40030D8615E625961211D21
:10314000D962217841B1012921D0244B40F20B11E1
:10315000234A244822F03CFEDA69618822F47F4247
:10316000013922F0100242EA0122DA610122174BF2
:10317000D96941F02001D961D9698906FCD41021AF
:103180009960002ABED0184A1A60BDE8F883D96950
:10319000FF3A608821F47F4118BF0122013821F0F5
:1031A000100141EA002141F01001D961DFE748EA4E
:1031B000026242F40032DA61B5E748EA0262034B88
:1031C00042F40032F7E742F20132DDE7001000522C
:1031D00001230100090002000A000200EE76020845
:1031E000087702085576020801230200024B1B688B
:1031F000586803685B6918474865022490F8A03D49
:1032000010B50446D3B903689B6A984719491A4A0E
:103210000B681B01D35C012B2AD11848006838BB0E
:10322000207A28BBA07A18BB086884F8A03D2372D6
:1032300002EB0010BDE81040FFF764BD037A43B114
:10324000002303720B4B18680B4B03EB0010FFF7C6
:103250009DFD606803681B68984748B9637A3BB175
:10326000236884F8A00D20465B6ABDE8104018472B
:1032700010BD00BF6C090024100000246809002460
:1032800070B504460E4B0C30002625466022606067
:103290002672667245F8203B29460EF07BFF04F546
:1032A0005A63EE6024359D42FBD184F8A06D002066
:1032B000C4F8A46D0BF081F9C4F8A40D204670BDCC
:1032C00050770208034B1A68D207FCD423229A6075
:1032D000704700BF001000520B4A5369DB0311D541
:1032E00000290FDD00F01F031944BFF34F8F014485
:1032F000C2F8680220300B1A002BF9DCBFF34F8FA5
:10330000BFF36F8F704700BF00ED00E030B5104C89
:103310002568ED07FCD423250904FF2BA5604FF099
:10332000010541EA050165636164E0630CD0094968
:1033300022F07F42656241EA0363E361064B226249
:103340006061E060236030BDE561044BA263F9E792
:1033500000100052090001000100020001000300FA
:1033600030B50E4C2568ED07FCD423251204FF2B45
:10337000A5604FF0010542EA050265636264E063FF
:10338000E16007D0064A42EA0363E3616562606177
:10339000226030BD034BE3612560FAE70010005264
:1033A00001000200010002FF30B50B4C2568ED075B
:1033B000FCD4232512041B06A560012543F4003329
:1033C0002A4365636264E063E160E361034B656225
:1033D0006061236030BD00BF001000520100020098
:1033E000012070474020704700EB81100830704783
:1033F00000EB8110083070470120704741F2043023
:10340000704741F2043303FB01000830704741F27A
:10341000043303FB0100083070470120704710207F
:10342000704700EB01100830704700EB01100830C6
:103430007047084601F02CB8034B10B504460360F2
:103440000DF015FA204610BD0878020810B50446A4
:10345000FFF7F2FF4821204622F041F9204610BD37
:10346000034B10B5044603600DF001FA204610BD71
:10347000D477020810B50446FFF7F2FF41F20C3191
:10348000204622F02CF9204610BD0000034B10B559
:10349000044603600DF0EBF9204610BDA07702084A
:1034A00010B50446FFF7F2FF1821204622F017F965
:1034B000204610BD094B10B50446036000F5995035
:1034C0001830FFF7B9FF04F12C00FFF7C9FF04F132
:1034D0001400FFF7DBFF204610BD00BF3C78020858
:1034E00008B50248FFF7E6FF08BD00BF60AE002444
:1034F00010B50446FFF7DEFF4FF4A751204622F037
:10350000EEF8204610BD00002DE9F34100F054FC18
:103510000024054600F054FC234601462246284676
:10352000009417F005FB274B274A2046274D1A60C9
:1035300003F052FC264B274A27489A6017F0A4F95B
:103540002B68BFF35B8FDB0736D4284622F0C9F81F
:1035500090B3224C224F234B04F1140007F14C0688
:1035600004F12C0823606060C4F80880E7602661DD
:103570000DF07EF91C4B404663610DF079F91B4B51
:103580003846E3620DF074F904F58053184A04F5E7
:103590009C50C3F8382303F077FE224604F59C5173
:1035A000304603F067FE304600F072FF114822F00B
:1035B0002DFC284622F0A1F80F4802B0BDE8F041EA
:1035C000FEF7DABCAC65022424A000245CAE002423
:1035D00044A0002428A000243400002460AE00246D
:1035E00098C100243C780208A0770208D47702082A
:1035F00008780208E1340008A89F00247047000002
:103600000148FEF7CBBC00BFA89F002473B50E4C49
:103610000E4B0F4E20460F4D3360FFF731FE28460C
:103620001BF0F0F80C4814F06DFE4FF448734FF4A3
:10363000F07221460948CDE9003233462A46FEF7AA
:1036400041FD02B070BD00BFB0A00024B06F020801
:1036500058AE002444A0002428A00024A89F0024E1
:103660000148FFF759BC00BFB0A0002400207047FC
:1036700081807047C18070470181704741817047E8
:103680007047704770477047704710B4C48803682C
:10369000121B84885B6D091B12B25DF8044B09B2E2
:1036A00018474FF6FF7383814FF0FF3303621368AF
:1036B000C36110607047002070478B8883800120B1
:1036C0007047704780F82610704790F826007047C2
:1036D000002210B5B1F90840B1F90A100280428009
:1036E0008480C18010BD0022028042808280C2801E
:1036F00070470177704780ED080A704780F8241002
:10370000704780F825107047012070479830704747
:103710008C3070478430704770470000024B902215
:1037200083F85A23704700BF00E100E0704701634F
:10373000C0E90D21704770477047704700EB81006A
:10374000114640680368DB68184780F83C107047F2
:1037500010B50446482121F0C2FF204610BD10B527
:1037600004462C2121F0BBFF204610BD10B50446B5
:10377000BC2121F0B4FF204610BD000038B504463E
:103780000DF06BFE23685D6E13F044FC014620468D
:10379000A847236808492046D3F8885000231A46D2
:1037A000A8476368054A5364054B5A60054A1A6383
:1037B0009A63054A5A6338BD009411D048C4002466
:1037C00000C40024000000D00094110038B5044665
:1037D0000D46406C4FF0FF310AF024FF606C0AF098
:1037E00044FF242303FB0545002385F8283094F883
:1037F00028300BB9236BA36338BD0DF0DFBD0DF08E
:1038000040BF90F8252012B103685B6918477047E4
:10381000124A5369DB0370B51ED50023C2F8843009
:10382000BFF34F8FD2F8803043F6E074C3F3C90082
:10383000C3F34E335B0103EA0406014646EA817591
:103840000139C2F87452F9D2203B13F1200FF2D1A2
:10385000BFF34F8FBFF36F8F70BD00BF00ED00E06F
:1038600008B531B1044B4FF4B871044A044822F052
:10387000AFFA90F8290008BD487802085C78020881
:10388000E679020810B531B1064B4FF4B571064A1E
:10389000064822F09DFA406811460368BDE81040D2
:1038A0001B6B184748780208307A0208E67902084C
:1038B00008B529B1034B7921034A044822F088FA5C
:1038C000C06808BD48780208DE7B0208E679020875
:1038D00010B5044629B1194BA221194A194822F002
:1038E00077FA052A15D8DFE802F0031115171C2214
:1038F000406803681B69984758B1012384F8293050
:1039000084F82C300023C4E9043302E0002380F85B
:10391000293010BD0362F5E70362012380F82A30E5
:10392000F0E7002380F8293001230362F1E7003B30
:1039300018BF012380F82D30EBE700BF487802085C
:10394000937D0208E679020810B50C4611461A4626
:103950002CB1064B9021064A064822F039FAC46081
:1039600040680368BDE810409B6818474878020823
:10397000677F0208E679020808B529B1054B822164
:10398000054A064822F024FAC0E90411C0E90632CB
:1039900008BD00BF4878020842810208E6790208A3
:1039A00090F83D3010B5044653B14FF0FF31406CF4
:1039B0000AF038FE002384F83D30012384F83E30BD
:1039C00010BD90F825201AB190F8242002B118609B
:1039D0007047000010B50446104629B1134BD021A2
:1039E000134A144822F0F4F994F8293033B1124BF9
:1039F0001B6893F86B2063691344636194F82B3060
:103A00000BB9012010BDA368036303685B69984785
:103A1000002394F82C0084F82B300028F1D194F87E
:103A20002D30002BEED184F82900EBE7487802080E
:103A3000FE820208E67902084865022470B51A4C35
:103A400005460DF0FDFC94F8293013B994F82A309E
:103A5000ABB1E169D4E90532534322694A43934249
:103A60000DD394F83C0038B19B1AB3FBF1F29942A4
:103A700098BF02F1FF326262012384F82E300123E5
:103A8000206C84F83D300AF085FE94F83E302BB16E
:103A9000606C0AF0EAFD002384F83E306868036831
:103AA000BDE870401B69184700C40024044B4FF068
:103AB0008062C3F88820BFF34F8FBFF36F8F7047CA
:103AC00000E100E0024B4FF080629A60704700BF57
:103AD00000E100E0F8B5034690F82800D8B94FF4AB
:103AE00080729E6B0125D8609A8506F58C1218614C
:103AF00002F5A05258619861D861186258629D62BF
:103B000083F82E00D3E90C473C44A2420AD90B4B60
:103B100052210B4A03E00B4B40F2C5110A4A0B48F5
:103B200022F056F99E609A634FF4487381F834503E
:103B3000CB864FF4F07308630B87F8BD56860208F6
:103B4000918602089F840208CF840208E679020861
:103B5000002370B5124E04468380124B0360336815
:103B600093F858200AB1D86C00B998680368DB6AEA
:103B70009847431E5D425D413368D86C30B103689D
:103B8000DB6A9847012808BF45F001052DB9064BAF
:103B90002721064A064822F01BF9204670BD00BFC7
:103BA0004865022444890208348802089288020881
:103BB000CB88020870B5244E3568BFF35B8F15F0D3
:103BC00001053FD1304621F08CFD00283AD01F4C32
:103BD0001F4B04F134002561E584A562A585C4E985
:103BE0000035C4E9025514F0ECFD04F158000FF063
:103BF00057FE184B2046A365174B40F8843BFFF750
:103C0000A7FF164B1648C4F884302433C4F89050EC
:103C1000C4F88C306423C4F89C50C4F8A850C4E99C
:103C200028350023C4F8AC30C4F8B030C4F8B43040
:103C3000C4F8B8300B4BC4F8983022F0E7F830469F
:103C400021F05BFD014870BD40C3002444C3002443
:103C5000CCA0020864890208DC89020818A10208C5
:103C60001937000850A102082DE9F7430446012640
:103C70004FF416674FF0FF31206C0AF05FFD4FF0F4
:103C8000FF31606C0AF0CEFC94F82E3043B36568C7
:103C9000D4F820802B6884F82B60B8F1000F23D073
:103CA0005B6A414628469847002323622B684FF4FD
:103CB000487200972846D3F814804FF4F073A16837
:103CC000C047236984F82C0001332361F0B12B68CD
:103CD00028469B6A984701380023E06084F82E301C
:103CE000606C0AF0C2FCC5E7626A002ADED0284692
:103CF000D3E909939847616A01442846C847236974
:103D0000626AC4F8248013442361CFE70120E3E70B
:103D1000014808B5FFF7A8FF00C4002438B51448CF
:103D20000025FEF7EDFB134C134B2A4629460120D4
:103D300023604FF48073A563A387A38584F83E5066
:103D400084F82E50C4E90C55C4E91055C4E9015556
:103D5000C4E90355C4E90555C4E90755C4E9095543
:103D60000AF0A2FC206428460AF027FC606438BDF3
:103D700048C4002400C40024288A0208704710B5F3
:103D80000446042121F0ABFC204610BD08B50329F0
:103D90000FD8DFE801F00A02060A03F069F840686C
:103DA00008BD03F065F88068FAE703F061F8006881
:103DB000F6E70020F4E7000000487047788A020820
:103DC0000C20704713B5002451B1036801AA019477
:103DD0008DF803409C680DF10303A04702B010BDAD
:103DE0000846FBE7C0897047008A7047C088704763
:103DF00080887047807A00F07F007047807AC00921
:103E000070470020704700009FED010A704700BF17
:103E100000000000704710B50446082121F05FFC47
:103E2000204610BD7047704700F5987308684968D0
:103E300003C3704770477047416070477047000088
:103E4000064BC0F84801C0F84C310023C0F850318F
:103E500000F5A273C0F84031704700BFC5420008AA
:103E600001230372704770477047704710B4416870
:103E70000346C2689B68541001EB6200D20748BF3A
:103E80000A595DF8044B48BFD358184703464068A9
:103E900030B19A681AB9D86800F001007047012063
:103EA000704710B504460C2121F019FC204610BDC6
:103EB00010B50446102121F012FC204610BD10B5AB
:103EC00004464FF4AE7121F00AFC204610BD10B537
:103ED0000446402121F003FC204610BD10B513F02C
:103EE00099F80368BDE81040DB6B1847054B0146A5
:103EF0001B782BB1406818B103680C315B6E184712
:103F0000704700BF47650224037A70B50546BBB908
:103F100040680368DB69984704463CB9686805F166
:103F20000C010368BDE870401B6E1847A18820464D
:103F30006B8FC91A236809B21B6B9847A469ECE719
:103F400070BD10B50446D0F8400158B10368DB6875
:103F5000984738B1D4F8400103689B68984700231C
:103F6000C4F8403110BD70B5044690F839000130F6
:103F700094F83830C0B2984284F8390005D901234A
:103F80002372002384F8393070BDB4F93A2000213F
:103F900015F00CF9C30706D500284FF6FF73C8BF0C
:103FA0000123184400B2238AC01AA08760680368FE
:103FB000DB69984705462DB960680368BDE8704025
:103FC0005B691847A9882846A38F19442B6809B252
:103FD0001B6B9847AD69EEE72DE9F14FD0E9556AC3
:103FE0000746B06803681B6A9847B0F53C7F05D266
:103FF000444BA321444A454821F0EAFE7068036817
:104000001B6A98470F2803D8414BA4213E4AF2E788
:10401000F06803681B6A98470B2803D83D4BA5211D
:10402000394AE8E7DFF8F49012F0F4FF043013F0B7
:104030002FF8D9F8000010B10368DB689847D9F869
:10404000000010B103681B689847DFF8D480D8F8E7
:10405000000010B103685B699847D7F83C0110B1C4
:1040600003685B689847D8F8000010B103681B68C4
:104070009847D7F83C0110B103689B689847F068EF
:1040800000214FF0000B03685B6A9847224B0446FF
:10409000C0F804B080F808B059460360B0680368FF
:1040A0005B6A9847054603F0DDF970685946036876
:1040B0005B6A98470646294603F0B0F9331DC7F8F6
:1040C0003C612846C9F80040C8F80050CAF80030E2
:1040D0002B68C6F808A0DB68EE6398473368304663
:1040E0001B6898472146284615F05AF82368204651
:1040F0001B699847236820465B6901B0BDE8F04F13
:10410000184700BF788B0208068C0208E48C02086E
:10411000398D0208DC8D0208AC90020890650224FB
:104120008C6502242DE9F14FD0E9556A0746B06845
:1041300003681B6A984741F20333984205D8564BEF
:10414000A321564A564821F043FE706803681B6A53
:1041500098470F2803D8534BA421504AF2E7F06840
:1041600003681B6A98473F2803D84F4BA5214B4A49
:10417000E8E7DFF8489112F04DFF043012F088FFB5
:10418000D9F8000010B10368DB689847D9F800003F
:1041900010B103681B689847DFF82481D8F8000045
:1041A00010B103685B699847D7F83C0110B1036808
:1041B0005B689847D8F8000010B103681B689847FF
:1041C000D7F83C0110B103689B689847F06800215C
:1041D00003685B6A98470023344A054643600446F7
:1041E000037245F80C2B28460FF034FC14220023F0
:1041F00022872F4AA3871278002A35D10123237200
:10420000B068002103685B6A9847054603F0ECF844
:104210007068002103685B6A98470646294603F0E8
:10422000AFF8331DC7F83C612846C9F80040C8F80C
:104230000050CAF800302B68C6F808A0DB68EE63AF
:104240009847336830461B6898472146284614F043
:10425000A7FF236820461B699847236820465B69AF
:1042600001B0BDE8F04F184712492846124AB1F98B
:1042700000B0E16823618B6BB2F900109847E368E6
:1042800059462846DB6B984728460FF05EFB0A4AE2
:1042900013885B426387B3E7788B02087F8E02083E
:1042A000E48C0208398D0208DC8D0208D0900208E7
:1042B000476502243E6502243C6502249065022481
:1042C0008C6502242DE9F14FD0E9556A0746B068A4
:1042D00003681B6A9847B0F52D7F05D2444BA32194
:1042E000444A454821F074FD706803681B6A98478A
:1042F0000F2803D8414BA4213E4AF2E7F068036837
:104300001B6A98470B2803D83D4BA521394AE8E79B
:10431000DFF8F49012F07EFE043012F0B9FED9F806
:10432000000010B10368DB689847D9F8000010B1AD
:1043300003681B689847DFF8D480D8F8000010B1F4
:1043400003685B699847D7F83C0110B103685B6864
:104350009847D8F8000010B103681B689847D7F851
:104360003C0110B103689B689847F06800214FF04A
:10437000000B03685B6A9847224B0446C0F804B000
:1043800080F808B059460360B06803685B6A9847D4
:10439000054602F0C7FF7068594603685B6A984794
:1043A0000646294602F082FF331DC7F83C612846C5
:1043B000C9F80040C8F80050CAF800302B68C6F8A9
:1043C00008A0DB68EE639847336830461B6898475F
:1043D0002146284614F0E4FE236820461B699847CE
:1043E000236820465B6901B0BDE8F04F184700BF65
:1043F000788B0208648F0208E48C0208398D020869
:10440000DC8D0208AC900208906502248C650224C1
:10441000044B1B6893F858200AB1D86C00B998680F
:10442000704700BF48650224F8B5174604460E469B
:1044300012F000FF124B00251C602946114B23602F
:10444000114BC4E95135114B1868C4E95355036841
:10445000C4E94F559B68C4E955769847284602F051
:10446000BBFCFFF7D5FF1BF0CEFAFFF7D1FF1BF027
:1044700041FBFFF7CDFF1BF049FB2046F8BD00BF15
:104480009C65022458900208409002084865022466
:10449000064BC0F84801C0F84C310023C0F8503139
:1044A00000F5A273C0F84031704700BFC542000854
:1044B000064BC0F84801C0F84C310023C0F8503119
:1044C00000F5A273C0F84031704700BF25410008D5
:1044D000064BC0F84801C0F84C310023C0F85031F9
:1044E00000F5A273C0F84031704700BFD93F000803
:1044F000406A7047806A704770478B88C069DB0AE2
:104500000A6850F823001044704710B50446BAB149
:10451000107B68B1537BD27A1B0203F4E0631A4329
:10452000236A03EB82031A888A4202D193F90200BC
:1045300010BD05D80138043380B20028F3D1F7E765
:104540000020F5E710B504462C2121F0C8F82046DC
:1045500010BD000030B58BB00446BDF86050089522
:10456000BDF85C5007959DF8505006959DF84C504D
:1045700005959DF8485004959DF8445003959DF885
:10458000405002959DF83C500195BDF8385000957B
:1045900014F0D4F9064B20462360159BE361169B6B
:1045A0002362199B63621A9BA3620BB030BD00BFEC
:1045B000F49002087047704770477047704730B5F5
:1045C00085B00368044601816D460146D3F8843006
:1045D0003C342846984795E8070084E8070005B072
:1045E00030BD30B585B00368044641816D46014653
:1045F000D3F884303C342846984795E8070084E88F
:10460000070005B030BD0022028042808280C28057
:10461000704780F836107047036870B504461B6B0E
:10462000154698472368204629465B6EBDE87040D2
:10463000184700207047806C70477047704770477C
:104640007047704730B444680346C2689B68551091
:1046500004EB6200D20748BF625930BC48BFD35850
:1046600018470346406830B19A681AB9D86800F014
:10467000010070470120704710B504464C2121F01D
:104680002EF8204610BD10B50446102121F027F861
:10469000204610BD10B504464FF42D7121F01FF8CF
:1046A000204610BD08B5FFF7ACF808BD036870B52B
:1046B0005E6B0446114B8DB21B682BB9104B6C21FD
:1046C000104A114821F084FB1049828D09889142DB
:1046D00003D80F4B6D210B4AF3E713F812200D4B53
:1046E0001B6853F8220003681B6B9847291A33464E
:1046F000204609B2BDE87040184700BFA0650224FB
:104700005491020896910208D1910208A4650224EE
:1047100026920208A865022438B500F59C73044669
:104720000D46994203D112F075FCFFF7C1FE04F16A
:1047300098039D4203D10121E06B02F0C1FD04F515
:104740000B739D4205D1E06B0021BDE8384002F0BB
:10475000B7BD38BD00224FF0FF318260C0E90021B3
:104760007047036870B504461B6B1546984723686D
:10477000204629465B6BBDE87040184770B504467B
:104780001D46BDF91060FFF7ECFF2368294620465F
:104790009B6B9847236831462046DB6BBDE8704031
:1047A000184700000022C0E90122C0E90322C0E945
:1047B0000522C0E907224FF480728284014A026018
:1047C000704700BFBC92020810B5044626220021A3
:1047D00021F09AFD2046FFF7E5FF044B20462360B9
:1047E000FF2384F826300023A36210BD58A30208DB
:1047F00038B504460D462622002121F085FD2046CD
:10480000FFF7D0FF064B2046294623602B88E38420
:10481000FF2384F828300FF03AFE204638BD00BF51
:1048200034A40208F8B5194B0646018F1B888B4249
:104830002AD9174B1B682BB9164B6C21164A1748FF
:1048400021F0C6FA13F81120154B1B6853F82250BB
:10485000144B186802F0FCFA2B68074628469B6B3D
:1048600098472B68044639469B6C2846984714FBAA
:1048700000F42B683946A4B228465B6A984723188F
:104880001BB2A6F84630F8BD0023FAE7A46502245F
:10489000A06502245491020896910208D191020861
:1048A000A8650224AC65022410B504462622002126
:1048B00021F02AFD2046FFF775FF0A4B4FF47F02D7
:1048C00020462360084BA3624FF6FF73A3850023A5
:1048D000C4E90C324FF0FF322387E363C4E91023AD
:1048E00010BD00BFC8A20208708B02082DE9F04F6E
:1048F000044691B0002514F0A7FAA046C14B04F17C
:104900006C094FF6FF7604F1980AE56348F8403BDE
:104910004046FFF759FF0EA94846ADF83860FFF74B
:1049200067FF50460FF0F4FE04F1E0030EA9ADF866
:10493000386018460493FFF75BFF04F5867304F5AF
:104940009C7B0EA918460593ADF83860FFF750FF21
:1049500029462622584604F5F07721F0D5FC584622
:10496000FFF720FF0123C4F8605184F85C31A64BA7
:1049700084F86451C4F8383104F5B673A4F866615C
:104980001846A4F8686184F86A61261D0293FFF74F
:104990008BFF04F5DA7318460693FFF715FF3846C8
:1049A000FFF782FF994BC4F82852C4F8E03104F5B0
:1049B0000B73184603930FF0ABFE954B2A4629461E
:1049C0004046C4E9A934934BC4E9AB354FF4F073C6
:1049D00000934FF44873FFF7D1FE4FF07F434146F9
:1049E0003046A3664FF0FF380CF04EFA6FF02C0201
:1049F00048466FF06601FFF7B4FE092348460EA94A
:104A0000ADF838300FF043FD494630460CF03CFA23
:104A10004FF004095046E6224FF41771FFF7A1FE4C
:104A20000EAA0DA95046ADF83490ADF838900FF0AD
:104A300006FC5046A4F8D090FFF7F4FE04F5297365
:104A400051463046C4F8C0304FF00A0A0793C4E913
:104A500035880CF019FA2A4629460498FFF781FE9A
:104A60000EA90498ADF838A00FF011FD0499304656
:104A70000CF00AFA4FF4C87229460598FFF771FE48
:104A80000EA90598ADF838A00FF001FD0599304644
:104A90000CF0FAF958464FF4C87240F20511FFF7CE
:104AA00060FE0B2258460DA9ADF834200DF1200A06
:104AB000ADF838200EAA0FF0C2FB079B59463046CE
:104AC000C4F860310CF0E0F94FF4D77240F279117C
:104AD0000298FFF746FE02995046A4F8A051C4F888
:104AE0009C810FF0B7F804F5D47C0923DFF84CB1B2
:104AF0009AE807008CE807000EA90298ADF83C3050
:104B0000CDF838B00FF040FB029930460CF0BCF9FC
:104B10003223E6224FF4A771069800939523FFF7FE
:104B20002DFE3D4B06993046C4F8DC310CF0ACF953
:104B3000F5224FF4AF713846FFF713FE4FF07F4375
:104B400039465046C4F81032D4F8E031A4F8145273
:104B500004F51D75D3F88430984704F507739AE877
:104B6000070083E807002D4B1B682BB92C4B6021F5
:104B70002C4A2D4821F02CF92C4B1B88062B03D8EE
:104B80002B4B6121274AF4E72A4B0621186802F0D3
:104B90005FF9294A03461821284615F067FE384672
:104BA000C4F828520FF0D0FA07230EA93846ADF802
:104BB0003C30CDF838B00FF0E7FA394630460CF00B
:104BC00063F90398E6227121FFF7CBFD0EAA0DA928
:104BD0000398ADF83490ADF838900FF030FB052312
:104BE0000398A4F86432FFF71DFE079B3046039933
:104BF000C4F85432C4E99A880CF046F9204611B042
:104C0000BDE8F08FCC930208C0A3020824930208E9
:104C1000B493020819470008BFB191FFA0650224B0
:104C20005491020864920208D1910208A4650224FA
:104C300026920208AC650224AF920208708B02082B
:104C400070477047704770477047704730B444688A
:104C50000346C2689B68551004EB6200D20748BF48
:104C6000625930BC48BFD35818470346406830B13A
:104C70009A681AB9D86800F001007047012070479F
:104C8000B0F804318B4286BF00EB81004068002001
:104C900070470346B0F80411002010B582B291426B
:104CA00002D84FF0FF3010BD53F8044F421C94F867
:104CB0003740002CF7D11046F0E7036810B51B69A8
:104CC00004469847011E06DB2368204689B2DB684C
:104CD000BDE810401847002010BDB0F8043100EBCB
:104CE0008303984200D1704750F8042F82F838109F
:104CF000F7E70346B0F8040110B15B6893F8380099
:104D0000704730B444680346C2689B68551004EB92
:104D10006200D20748BF625930BC48BFD358184719
:104D20000346406830B19A681AB9D86800F00100AB
:104D300070470120704770B50D4604460121284692
:104D40000FF0B6FD2368294620465B6ABDE8704037
:104D5000184710B504464FF4987120F0C0FC204667
:104D600010BD10B50446102120F0B9FC204610BD3E
:104D700010B50446102120F0B2FC204610BD10B53D
:104D8000044641F2043120F0AAFC204610BD00F593
:104D90008C530833994270B504460D4605D1002363
:104DA0000422C06B194602F0F5FA04F58A53083361
:104DB0009D4205D1012304220021E06B02F0EAFAB2
:104DC00004F5885308339D4205D1022304220021B3
:104DD000E06B02F0DFFA04F5865308339D4205D1FB
:104DE000032304220021E06B02F0D4FA04F584537B
:104DF00008339D4205D100230322E06B194602F0DF
:104E0000C9FA04F5825308339D4205D101230322D8
:104E10000021E06B02F0BEFA04F5805308339D4296
:104E200005D1022303220021E06B02F0B3FA04F65D
:104E3000C8739D4205D103230021E06B1A4602F09E
:104E4000A9FA04F688739D4205D100230222E06B83
:104E5000194602F09FFA04F648739D4205D10123DA
:104E600002220021E06B02F095FA04F608739D42DD
:104E700005D102230021E06B1A4602F08BFA04F6FA
:104E8000C8639D4205D1032302220021E06B02F09A
:104E900081FA04F688639D4205D100230122E06B6C
:104EA000194602F077FA04F648639D4205D10123C2
:104EB0000021E06B1A4602F06DFA04F608639D4289
:104EC00005D1022301220021E06B02F063FA04F60F
:104ED000C8539D4205D1032301220021E06B02F05B
:104EE00059FA04F688539D4205D10023042201217A
:104EF000E06B02F04FFA04F648539D4205D10123BE
:104F00000422E06B194602F045FA04F608539D426C
:104F100005D1022304220121E06B02F03BFA04F6E2
:104F2000C8439D4205D1032304220121E06B02F016
:104F300031FA04F688439D4205D100230322012162
:104F4000E06B02F027FA04F648439D4205D10123A5
:104F50000322E06B194602F01DFA04F608439D4255
:104F600005D1022303220121E06B02F013FA04F6BB
:104F7000C8339D4205D103230121E06B1A4602F09C
:104F800009FA04F688339D4205D10023022201214B
:104F9000E06B02F0FFF904F648339D4205D101238E
:104FA0000222E06B194602F0F5F904F608339D423F
:104FB00005D102230121E06B1A4602F0EBF904F659
:104FC000C8239D4205D1032302220121E06B02F098
:104FD000E1F904F688239D4205D101220023E06B0C
:104FE000114602F0D7F904F648239D4205D101236A
:104FF000E06B1A46194602F0CDF904F608239D42EB
:1050000005D101220223E06B114602F0C3F904F638
:10501000C8139D4205D101220323E06B114602F023
:10502000B9F904F688139D4205D100230422022118
:10503000E06B02F0AFF904F648139D4205D101235D
:1050400004220221E06B02F0A5F904F608139D4248
:1050500005D102230422E06B194602F09BF904F605
:10506000C8039D4205D1032304220221E06B02F014
:1050700091F904F688039D4205D100230322022101
:10508000E06B02F087F904F648039D4205D1012345
:1050900003220221E06B02F07DF904F608039D4231
:1050A00005D102230322E06B194602F073F904F5DF
:1050B000F9639D4205D103230221E06B1A4602F0F9
:1050C00069F904F5F1639D4205D102220023E06BEA
:1050D000114602F05FF904F5E9639D4205D1022211
:1050E0000123E06B114602F055F904F5E1639D429E
:1050F00005D10223E06B1A46194602F04BF904F57C
:10510000D9639D4205D102220323E06B114602F0D0
:1051100041F904F5D1639D4205D10023012202210A
:10512000E06B02F037F904F5C9639D4205D1012314
:105130000221E06B1A4602F02DF904F5C1639D428D
:1051400005D102230122E06B194602F023F904F590
:10515000B9639D4205D1032301220221E06B02F0D5
:1051600019F904F5B1639D4205D1002304220321FE
:10517000E06B02F00FF904F5A9639D4205D101230C
:1051800004220321E06B02F005F904F5A1639D42BE
:1051900005D1022304220321E06B02F0FBF804F5A1
:1051A00099639D4205D103230422E06B194602F066
:1051B000F1F804F591639D4205D103220023E06BD1
:1051C000114602F0E7F804F589639D4205D10322F8
:1051D0000123E06B114602F0DDF804F581639D4286
:1051E00005D103220223E06B114602F0D3F804F547
:1051F00072739D4205D10323E06B1A46194602F0F3
:10520000C9F804F562739D4205D1002302220321EF
:10521000E06B02F0BFF804F552739D4205D1012303
:1052200002220321E06B02F0B5F804F542739D42BF
:1052300005D102230321E06B1A4602F0ABF804F516
:1052400032739D4205D103230222E06B194602F01E
:10525000A1F804F522739D4205D100230122032108
:10526000E06B02F097F804F512739D4205D101231B
:105270000321E06B1A4602F08DF804F502739D429B
:1052800005D1022301220321E06B02F083F804F52B
:10529000E4739D4207D10323E06B01221946BDE868
:1052A000704002F077B870BD08B5B0F804313F2BFC
:1052B00005D9094B4121094A094820F089FD00F52B
:1052C00084728A6200F58C72CA635A1CA0F80421A9
:1052D00000EB8300416008BDFC930208359402088E
:1052E000A494020838B500F5915304460D4699423E
:1052F00003D111F08FFEFFF7EBF804F594501C304A
:10530000854205D111F086FEBDE83840FFF7C0B8F0
:1053100038BD70B504460D460026B4F80421B3B27A
:105320009A420ED8D4F82801C8B10368DB689847C0
:10533000A8B1D4F8280129460368BDE870409B68ED
:105340001847B3B204EB83035868A84205D090F81D
:10535000373013B100210FF0ABFA0136DDE770BD35
:1053600070B50446D0F82C010D4658B10368DB68CF
:10537000984738B1D4F82C0129460368BDE870403D
:105380009B68184770BD000010B504462622002116
:1053900020F0BAFF2046FFF705FA054B20462360B0
:1053A0000023A36284F82C30012384F8243010BD3C
:1053B000E8A1020810B50446FFF7E6FF084B4FF0DE
:1053C000FF32204623604FF6FF73E3856FF07F4383
:1053D000C4E90C23002384F83830E36310BD00BF18
:1053E00014A502082DE9F04F0446CDB0002513F0B6
:1053F0002BFD2746DA4B26222946E5630DF5967BE1
:1054000047F8403B384620F07FFF3846FFF7CAF99F
:10541000D44B04F16C084FF6FF792364FF235946FF
:10542000A56684F866304046ADF82C91FFF7E0F9A8
:1054300004F19803CC4A2421A4F89C51029304F56A
:105440008056CA4B4FF0050AC4F8A021C4F8983022
:10545000C4F8B021029B029AC4F8A4310123C4F815
:10546000B4212822C4E96A13C4E96E2304F5E47365
:10547000C4E9705518460393FFF79CFF04F50273C7
:1054800018460C93FFF796FF04F5127318460D9318
:10549000FFF790FF04F5227318460E93FFF78AFF7B
:1054A00004F5327318460F93FFF784FF04F5427337
:1054B00018461093FFF77EFF04F5527318461193B8
:1054C000FFF778FF04F5627318461293FFF772FF37
:1054D00004F5727318461393FFF76CFF04F58163AC
:1054E00018461493FFF766FF04F589631846159371
:1054F000FFF760FF04F5916318461693FFF75AFF14
:1055000004F5996318461793FFF754FF04F5A16358
:1055100018461893FFF74EFF04F5A9631846199330
:10552000FFF748FF04F5B16318461A93FFF742FFEF
:1055300004F5B96318461B93FFF73CFF04F5C163FC
:1055400018461C93FFF736FF04F5C96318461D93F0
:10555000FFF730FF04F5D16318461E93FFF72AFFCB
:1055600004F5D96318461F93FFF724FF04F5E163A0
:1055700018462093FFF71EFF04F5E96318462193B0
:10558000FFF718FF04F5F16318462293FFF712FFA7
:1055900004F5F96318462393FFF70CFF04F608039C
:1055A00018462493FFF706FF04F648031846259390
:1055B000FFF700FF04F6880318462693FFF7FAFE6C
:1055C00004F6C80318462793FFF7F4FE04F6081301
:1055D00018462893FFF7EEFE04F648131846299361
:1055E000FFF7E8FE04F6881318462A93FFF7E2FE59
:1055F00004F6C81318462B93FFF7DCFE04F60823C5
:1056000018462C93FFF7D6FE04F6482318462D9330
:10561000FFF7D0FE04F6882318462E93FFF7CAFE44
:1056200004F6C82318462F93FFF7C4FE04F6083388
:1056300018463093FFF7BEFE04F648331846319300
:10564000FFF7B8FE04F6883318463293FFF7B2FE30
:1056500004F6C83318463393FFF7ACFE04F608434C
:1056600018463493FFF7A6FE04F6484318463593D0
:10567000FFF7A0FE04F6884318463693FFF79AFE1C
:1056800004F6C84318463793FFF794FE04F6085310
:1056900018463893FFF78EFE04F6485318463993A0
:1056A000FFF788FE04F6885318463A93FFF782FE08
:1056B00004F6C85318463B93FFF77CFE04F60863D4
:1056C00018463C93FFF776FE04F6486318463D9370
:1056D000FFF770FE04F6886318463E93FFF76AFEF4
:1056E00004F6C86318463F93FFF764FE04F6087398
:1056F00018464093FFF75EFE04F648731846419340
:10570000FFF758FE04F6887318464293FFF752FEDF
:1057100004F6C87318464393FFF74CFE04F5805314
:10572000083318460493FFF745FE04F58253083307
:1057300018460593FFF73EFE04F5845308331846D8
:105740000693FFF737FE04F5865308331846079390
:10575000FFF730FE04F588530833184608E000BF11
:105760007495020858A302081095020828950208AB
:105770000893FFF71FFE04F58A5308331846099370
:10578000FFF718FE04F58C53083318460A93FFF709
:1057900011FE04F58E535946ADF82C910833184686
:1057A0004493FFF725F804F58F535946ADF82C9133
:1057B000143318464593FFF71BF804F59153184628
:1057C00047930EF0A5FF04F593530833184646930C
:1057D000FFF7DAFDD14BA6F89692C6F8683204F5C9
:1057E0009453A6F898921C3386F89A924FF00609C3
:1057F00018460B930EF08CFFC94BCA4A294638460F
:10580000C6E9B934C6E9BD34C74BC6E9BB25C6E90C
:10581000BF352A46261DFEF7A4FF38464FF44871CF
:10582000FDF72AFF38464FF4F071FDF727FF4FF0E0
:105830007F4339463046A36608270BF025FB6FF0FF
:10584000290240466FF06201FEF78BFF092359469B
:105850004046ADF82C310EF01AFE414630460BF0B2
:1058600013FB04F597534FF00708039814334FF4D4
:105870009A7240F2EE21C4F8C031FEF772FF4AABD3
:1058800049AA48A90398CDF800B0ADF820A1ADF819
:105890002491ADF82881ADF82C710EF068FF2946EF
:1058A00003980FF005F884F80052DDE90201FFF7D4
:1058B000FBFC039930460BF0E7FA0C984FF49A7210
:1058C0004FF42F71FEF74DFF4AAB49AA48A90C9837
:1058D000CDF800B0ADF820A1ADF82491ADF8288145
:1058E000ADF82C710EF043FF29460C980EF0E0FF46
:1058F0000C99029884F84052FFF7D6FC0C99304678
:105900000BF0C2FA0D984FF49A7240F28A21FEF71A
:1059100028FF4AAB49AA48A90D98CDF800B0ADF8C8
:1059200020A1ADF82491ADF82881ADF82C710EF0CE
:105930001EFF29460D980EF0BBFF0D99029884F8C2
:105940008052FFF7B1FC0D9930460BF09DFA0E988E
:105950004FF49A724FF41671FEF703FF4AAB49AA4F
:1059600048A90E98CDF800B0ADF820A1ADF824916B
:10597000ADF82881ADF82C710EF0F9FE29460E988D
:105980000EF096FF0E99029884F8C052FFF78CFC37
:105990000E9930460BF078FA0F984FF4817240F26E
:1059A000EE21FEF7DEFE4AAB49AA48A90F98CDF8D2
:1059B00000B0ADF820A1ADF82491ADF82881ADF884
:1059C0002C710EF0D4FE29460F980EF071FF0F993E
:1059D000029884F80053FFF767FC0F9930460BF0EC
:1059E00053FA10984FF481724FF42F71FEF7B9FEFD
:1059F0004AAB49AA48A91098CDF800B0ADF820A14B
:105A0000ADF82491ADF82881ADF82C710EF0AFFE01
:105A1000294610980EF04CFF1099029884F84053D4
:105A2000FFF742FC109930460BF02EFA11984FF414
:105A3000817240F28A21FEF794FE4AAB49AA48A936
:105A40001198CDF800B0ADF820A1ADF82491ADF8D3
:105A50002881ADF82C710EF08AFE294611980EF0BF
:105A600027FF1199029884F88053FFF71DFC1199C4
:105A700030460BF009FA12984FF481724FF4167108
:105A8000FEF76FFE4AAB49AA48A91298CDF800B0BC
:105A9000ADF820A1ADF82491ADF82881ADF82C71B6
:105AA0000EF065FE294612980EF002FF1299029838
:105AB00084F8C053FFF7F8FB129930460BF0E4F975
:105AC0001398D02240F2EE21FEF74BFE4AAB49AAD2
:105AD00048A91398CDF800B0ADF820A1ADF82491F5
